{
  "_format": "hh-sol-artifact-1",
  "contractName": "FactoryPreSale",
  "sourceName": "contracts/factoryContract.sol",
  "abi": [
    {
      "anonymous": false,
      "inputs": [
        {
          "indexed": false,
          "internalType": "address",
          "name": "preSale",
          "type": "address"
        }
      ],
      "name": "NewPreSale",
      "type": "event"
    },
    {
      "inputs": [
        {
          "components": [
            {
              "internalType": "bool",
              "name": "enabled",
              "type": "bool"
            },
            {
              "internalType": "uint256",
              "name": "rate",
              "type": "uint256"
            },
            {
              "internalType": "uint8",
              "name": "liquidity",
              "type": "uint8"
            },
            {
              "internalType": "uint64",
              "name": "lockUpTime",
              "type": "uint64"
            }
          ],
          "internalType": "struct FactoryPreSale.AutoDex",
          "name": "_autoDex",
          "type": "tuple"
        },
        {
          "components": [
            {
              "internalType": "bool",
              "name": "whitelist",
              "type": "bool"
            },
            {
              "internalType": "uint256",
              "name": "rate",
              "type": "uint256"
            },
            {
              "internalType": "uint256",
              "name": "amount",
              "type": "uint256"
            },
            {
              "internalType": "uint64",
              "name": "startTime",
              "type": "uint64"
            },
            {
              "internalType": "uint64",
              "name": "endTime",
              "type": "uint64"
            },
            {
              "internalType": "uint256",
              "name": "minVal",
              "type": "uint256"
            },
            {
              "internalType": "uint256",
              "name": "maxVal",
              "type": "uint256"
            },
            {
              "internalType": "uint256",
              "name": "softCap",
              "type": "uint256"
            },
            {
              "internalType": "uint256",
              "name": "hardCap",
              "type": "uint256"
            }
          ],
          "internalType": "struct FactoryPreSale.Sale",
          "name": "_sale",
          "type": "tuple"
        },
        {
          "components": [
            {
              "internalType": "uint64",
              "name": "startTime",
              "type": "uint64"
            },
            {
              "internalType": "uint8",
              "name": "startPercent",
              "type": "uint8"
            },
            {
              "internalType": "uint64",
              "name": "cliffTime",
              "type": "uint64"
            },
            {
              "internalType": "uint8",
              "name": "cliffPercent",
              "type": "uint8"
            }
          ],
          "internalType": "struct FactoryPreSale.Vest",
          "name": "_vest",
          "type": "tuple"
        },
        {
          "internalType": "address",
          "name": "_token",
          "type": "address"
        },
        {
          "internalType": "bool",
          "name": "vesting",
          "type": "bool"
        }
      ],
      "name": "createPreSale",
      "outputs": [],
      "stateMutability": "nonpayable",
      "type": "function"
    },
    {
      "inputs": [
        {
          "internalType": "address",
          "name": "",
          "type": "address"
        }
      ],
      "name": "preSale",
      "outputs": [
        {
          "internalType": "address",
          "name": "",
          "type": "address"
        }
      ],
      "stateMutability": "view",
      "type": "function"
    }
  ],
  "bytecode": "0x608060405234801561001057600080fd5b50615f6d806100206000396000f3fe60806040523480156200001157600080fd5b50600436106200003a5760003560e01c806355524a82146200003f57806365f5dc7e146200005f575b600080fd5b6200005d6004803603810190620000579190620007ac565b62000095565b005b6200007d600480360381019062000077919062000838565b6200064a565b6040516200008c91906200087b565b60405180910390f35b600073ffffffffffffffffffffffffffffffffffffffff166000808473ffffffffffffffffffffffffffffffffffffffff1673ffffffffffffffffffffffffffffffffffffffff16815260200190815260200160002060009054906101000a900473ffffffffffffffffffffffffffffffffffffffff1673ffffffffffffffffffffffffffffffffffffffff161462000165576040517f08c379a00000000000000000000000000000000000000000000000000000000081526004016200015c90620008f9565b60405180910390fd5b60008260405162000176906200067d565b6200018291906200087b565b604051809103906000f0801580156200019f573d6000803e3d6000fd5b5090508073ffffffffffffffffffffffffffffffffffffffff166371a8ad12866000016020810190620001d391906200091b565b85886020013589604001358a60e001358b61010001358c60a001358d60c001358e606001602081019062000208919062000992565b8f60800160208101906200021d919062000992565b336040518c63ffffffff1660e01b8152600401620002469b9a9998979695949392919062000a01565b6020604051808303816000875af115801562000266573d6000803e3d6000fd5b505050506040513d601f19601f820116820180604052508101906200028c919062000ad9565b50806000808573ffffffffffffffffffffffffffffffffffffffff1673ffffffffffffffffffffffffffffffffffffffff16815260200190815260200160002060006101000a81548173ffffffffffffffffffffffffffffffffffffffff021916908373ffffffffffffffffffffffffffffffffffffffff1602179055506000808315620004a5576000838760000160208101906200032c919062000992565b88604001602081019062000341919062000992565b89602001602081019062000356919062000b49565b8a60600160208101906200036b919062000b49565b8a6040516200037a906200068b565b6200038b9695949392919062000b8c565b604051809103906000f080158015620003a8573d6000803e3d6000fd5b5090508573ffffffffffffffffffffffffffffffffffffffff166370a08231336040518263ffffffff1660e01b8152600401620003e691906200087b565b602060405180830381865afa15801562000404573d6000803e3d6000fd5b505050506040513d601f19601f820116820180604052508101906200042a919062000c2a565b91508092508373ffffffffffffffffffffffffffffffffffffffff16636f6ff3bc826040518263ffffffff1660e01b81526004016200046a91906200087b565b600060405180830381600087803b1580156200048557600080fd5b505af11580156200049a573d6000803e3d6000fd5b5050505050620004b0565b866040013590508291505b8473ffffffffffffffffffffffffffffffffffffffff166323b872dd3384846040518463ffffffff1660e01b8152600401620004ef9392919062000c5c565b6020604051808303816000875af11580156200050f573d6000803e3d6000fd5b505050506040513d601f19601f8201168201806040525081019062000535919062000ad9565b508760000160208101906200054b91906200091b565b1562000607578273ffffffffffffffffffffffffffffffffffffffff1663397d96758960000160208101906200058291906200091b565b8a602001358b60400160208101906200059c919062000b49565b8c6060016020810190620005b1919062000992565b6040518563ffffffff1660e01b8152600401620005d2949392919062000c99565b600060405180830381600087803b158015620005ed57600080fd5b505af115801562000602573d6000803e3d6000fd5b505050505b7f17b365fe6000385afbc507ceeddcfb26073d3fc491fcaf8c05f022381a3791a2836040516200063891906200087b565b60405180910390a15050505050505050565b60006020528060005260406000206000915054906101000a900473ffffffffffffffffffffffffffffffffffffffff1681565b6142328062000ce783390190565b61101f8062004f1983390190565b600080fd5b600080fd5b600060808284031215620006bc57620006bb6200069e565b5b81905092915050565b60006101208284031215620006df57620006de6200069e565b5b81905092915050565b6000608082840312156200070157620007006200069e565b5b81905092915050565b600073ffffffffffffffffffffffffffffffffffffffff82169050919050565b600062000737826200070a565b9050919050565b62000749816200072a565b81146200075557600080fd5b50565b60008135905062000769816200073e565b92915050565b60008115159050919050565b62000786816200076f565b81146200079257600080fd5b50565b600081359050620007a6816200077b565b92915050565b60008060008060006102608688031215620007cc57620007cb62000699565b5b6000620007dc88828901620006a3565b9550506080620007ef88828901620006c5565b9450506101a06200080388828901620006e8565b935050610220620008178882890162000758565b9250506102406200082b8882890162000795565b9150509295509295909350565b60006020828403121562000851576200085062000699565b5b6000620008618482850162000758565b91505092915050565b62000875816200072a565b82525050565b60006020820190506200089260008301846200086a565b92915050565b600082825260208201905092915050565b7f50726553616c6520616c72656164792065786973747300000000000000000000600082015250565b6000620008e160168362000898565b9150620008ee82620008a9565b602082019050919050565b600060208201905081810360008301526200091481620008d2565b9050919050565b60006020828403121562000934576200093362000699565b5b6000620009448482850162000795565b91505092915050565b600067ffffffffffffffff82169050919050565b6200096c816200094d565b81146200097857600080fd5b50565b6000813590506200098c8162000961565b92915050565b600060208284031215620009ab57620009aa62000699565b5b6000620009bb848285016200097b565b91505092915050565b620009cf816200076f565b82525050565b6000819050919050565b620009ea81620009d5565b82525050565b620009fb816200094d565b82525050565b60006101608201905062000a19600083018e620009c4565b62000a28602083018d6200086a565b62000a37604083018c620009df565b62000a46606083018b620009df565b62000a55608083018a620009df565b62000a6460a0830189620009df565b62000a7360c0830188620009df565b62000a8260e0830187620009df565b62000a92610100830186620009f0565b62000aa2610120830185620009f0565b62000ab26101408301846200086a565b9c9b505050505050505050505050565b60008151905062000ad3816200077b565b92915050565b60006020828403121562000af25762000af162000699565b5b600062000b028482850162000ac2565b91505092915050565b600060ff82169050919050565b62000b238162000b0b565b811462000b2f57600080fd5b50565b60008135905062000b438162000b18565b92915050565b60006020828403121562000b625762000b6162000699565b5b600062000b728482850162000b32565b91505092915050565b62000b868162000b0b565b82525050565b600060c08201905062000ba360008301896200086a565b62000bb26020830188620009f0565b62000bc16040830187620009f0565b62000bd0606083018662000b7b565b62000bdf608083018562000b7b565b62000bee60a08301846200086a565b979650505050505050565b62000c0481620009d5565b811462000c1057600080fd5b50565b60008151905062000c248162000bf9565b92915050565b60006020828403121562000c435762000c4262000699565b5b600062000c538482850162000c13565b91505092915050565b600060608201905062000c7360008301866200086a565b62000c8260208301856200086a565b62000c916040830184620009df565b949350505050565b600060808201905062000cb06000830187620009c4565b62000cbf6020830186620009df565b62000cce604083018562000b7b565b62000cdd6060830184620009f0565b9594505050505056fe60c06040526000600e60146101000a81548160ff0219169083151502179055506000600e60156101000a81548160ff021916908315150217905550737a250d5630b4cf539739df2c5dacb4c659f2488d600f60006101000a81548173ffffffffffffffffffffffffffffffffffffffff021916908373ffffffffffffffffffffffffffffffffffffffff160217905550735c69bee701ef814a2b6a3edd4b1652cb9cc5aa6f601060006101000a81548173ffffffffffffffffffffffffffffffffffffffff021916908373ffffffffffffffffffffffffffffffffffffffff160217905550348015620000f157600080fd5b50604051620042323803806200423283398181016040528101906200011791906200027c565b80600c60006101000a81548173ffffffffffffffffffffffffffffffffffffffff021916908373ffffffffffffffffffffffffffffffffffffffff1602179055508073ffffffffffffffffffffffffffffffffffffffff1663313ce5676040518163ffffffff1660e01b8152600401602060405180830381865afa158015620001a4573d6000803e3d6000fd5b505050506040513d601f19601f82011682018060405250810190620001ca9190620002ec565b60ff1660a08160ff16815250503373ffffffffffffffffffffffffffffffffffffffff1660808173ffffffffffffffffffffffffffffffffffffffff1681525050506200031e565b600080fd5b600073ffffffffffffffffffffffffffffffffffffffff82169050919050565b6000620002448262000217565b9050919050565b620002568162000237565b81146200026257600080fd5b50565b60008151905062000276816200024b565b92915050565b60006020828403121562000295576200029462000212565b5b6000620002a58482850162000265565b91505092915050565b600060ff82169050919050565b620002c681620002ae565b8114620002d257600080fd5b50565b600081519050620002e681620002bb565b92915050565b60006020828403121562000305576200030462000212565b5b60006200031584828501620002d5565b91505092915050565b60805160a051613ecb6200036760003960008181610fcd01528181611bcb0152611e580152600081816103ef0152818161065c0152818161074b015261188c0152613ecb6000f3fe60806040526004361061010d5760003560e01c8063c45a015511610095578063e8078d9411610064578063e8078d9414610329578063e8cc00ad14610333578063f74766491461034a578063f958a65714610373578063fc0c546a1461039c57610114565b8063c45a0155146102a5578063ca628c78146102d0578063de11c94a146102e7578063e086e5ec1461031257610114565b80636f6ff3bc116100dc5780636f6ff3bc146101cf57806371a8ad12146101f85780637ea382c114610235578063ab98089f1461024c578063b8dde1121461026857610114565b80631694505e14610119578063397d9675146101445780635dceba6c1461016d5780636ad1fe021461019b57610114565b3661011457005b600080fd5b34801561012557600080fd5b5061012e6103c7565b60405161013b9190612800565b60405180910390f35b34801561015057600080fd5b5061016b6004803603810190610166919061290c565b6103ed565b005b34801561017957600080fd5b50610182610577565b60405161019294939291906129af565b60405180910390f35b3480156101a757600080fd5b506101b06105c3565b6040516101c69a99989796959493929190612a15565b60405180910390f35b3480156101db57600080fd5b506101f660048036038101906101f19190612add565b61065a565b005b34801561020457600080fd5b5061021f600480360381019061021a9190612b0a565b610747565b60405161022c9190612bfe565b60405180910390f35b34801561024157600080fd5b5061024a610b00565b005b61026660048036038101906102619190612c7e565b610edb565b005b34801561027457600080fd5b5061028f600480360381019061028a9190612c7e565b6114d5565b60405161029c9190612bfe565b60405180910390f35b3480156102b157600080fd5b506102ba611558565b6040516102c79190612cec565b60405180910390f35b3480156102dc57600080fd5b506102e561157e565b005b3480156102f357600080fd5b506102fc61188a565b6040516103099190612d07565b60405180910390f35b34801561031e57600080fd5b506103276118ae565b005b610331611cad565b005b34801561033f57600080fd5b50610348612348565b005b34801561035657600080fd5b50610371600480360381019061036c9190612d58565b61255d565b005b34801561037f57600080fd5b5061039a60048036038101906103959190612d85565b6125fa565b005b3480156103a857600080fd5b506103b16126ac565b6040516103be9190612d07565b60405180910390f35b600f60009054906101000a900473ffffffffffffffffffffffffffffffffffffffff1681565b7f000000000000000000000000000000000000000000000000000000000000000073ffffffffffffffffffffffffffffffffffffffff163373ffffffffffffffffffffffffffffffffffffffff161461047b576040517f08c379a000000000000000000000000000000000000000000000000000000000815260040161047290612e0f565b60405180910390fd5b60011515841515146104c2576040517f08c379a00000000000000000000000000000000000000000000000000000000081526004016104b990612e7b565b60405180910390fd5b604051806080016040528085151581526020018481526020018360ff1681526020018267ffffffffffffffff16815250600960008201518160000160006101000a81548160ff0219169083151502179055506020820151816001015560408201518160020160006101000a81548160ff021916908360ff16021790555060608201518160020160016101000a81548167ffffffffffffffff021916908367ffffffffffffffff16021790555090505050505050565b60098060000160009054906101000a900460ff16908060010154908060020160009054906101000a900460ff16908060020160019054906101000a900467ffffffffffffffff16905084565b60008060000160009054906101000a900460ff16908060010154908060020154908060030160009054906101000a900467ffffffffffffffff16908060030160089054906101000a900467ffffffffffffffff16908060040160009054906101000a900473ffffffffffffffffffffffffffffffffffffffff1690806005015490806006015490806007015490806008015490508a565b7f000000000000000000000000000000000000000000000000000000000000000073ffffffffffffffffffffffffffffffffffffffff163373ffffffffffffffffffffffffffffffffffffffff16146106e8576040517f08c379a00000000000000000000000000000000000000000000000000000000081526004016106df90612e0f565b60405180910390fd5b6001600e60156101000a81548160ff02191690831515021790555080600e60006101000a81548173ffffffffffffffffffffffffffffffffffffffff021916908373ffffffffffffffffffffffffffffffffffffffff16021790555050565b60007f000000000000000000000000000000000000000000000000000000000000000073ffffffffffffffffffffffffffffffffffffffff163373ffffffffffffffffffffffffffffffffffffffff16146107d7576040517f08c379a00000000000000000000000000000000000000000000000000000000081526004016107ce90612ee7565b60405180910390fd5b600073ffffffffffffffffffffffffffffffffffffffff168b73ffffffffffffffffffffffffffffffffffffffff1603610846576040517f08c379a000000000000000000000000000000000000000000000000000000000815260040161083d90612f79565b60405180910390fd5b60008a11610889576040517f08c379a000000000000000000000000000000000000000000000000000000000815260040161088090612fe5565b60405180910390fd5b600089116108cc576040517f08c379a00000000000000000000000000000000000000000000000000000000081526004016108c390613051565b60405180910390fd5b8267ffffffffffffffff168467ffffffffffffffff161080156108f85750428367ffffffffffffffff16115b610937576040517f08c379a000000000000000000000000000000000000000000000000000000000815260040161092e906130bd565b60405180910390fd5b6040518061014001604052808d151581526020018b81526020018a81526020018567ffffffffffffffff1681526020018467ffffffffffffffff1681526020018373ffffffffffffffffffffffffffffffffffffffff168152602001878152602001868152602001898152602001888152506000808201518160000160006101000a81548160ff021916908315150217905550602082015181600101556040820151816002015560608201518160030160006101000a81548167ffffffffffffffff021916908367ffffffffffffffff16021790555060808201518160030160086101000a81548167ffffffffffffffff021916908367ffffffffffffffff16021790555060a08201518160040160006101000a81548173ffffffffffffffffffffffffffffffffffffffff021916908373ffffffffffffffffffffffffffffffffffffffff16021790555060c0820151816005015560e08201518160060155610100820151816007015561012082015181600801559050507f1f72a91d509e6a0c5effd143cf660d1df82dabdb2c0da190480afd8f57ca35f084848c8c604051610ae5949392919061310e565b60405180910390a1600190509b9a5050505050505050505050565b600060040160009054906101000a900473ffffffffffffffffffffffffffffffffffffffff1673ffffffffffffffffffffffffffffffffffffffff163373ffffffffffffffffffffffffffffffffffffffff1614610b93576040517f08c379a0000000000000000000000000000000000000000000000000000000008152600401610b8a9061319f565b60405180910390fd5b42600960020160019054906101000a900467ffffffffffffffff1667ffffffffffffffff1610610bf8576040517f08c379a0000000000000000000000000000000000000000000000000000000008152600401610bef9061320b565b60405180910390fd5b6000601060009054906101000a900473ffffffffffffffffffffffffffffffffffffffff1673ffffffffffffffffffffffffffffffffffffffff1663e6a43905600c60009054906101000a900473ffffffffffffffffffffffffffffffffffffffff16600f60009054906101000a900473ffffffffffffffffffffffffffffffffffffffff1673ffffffffffffffffffffffffffffffffffffffff1663ad5c46486040518163ffffffff1660e01b8152600401602060405180830381865afa158015610cc8573d6000803e3d6000fd5b505050506040513d601f19601f82011682018060405250810190610cec9190613240565b6040518363ffffffff1660e01b8152600401610d0992919061326d565b602060405180830381865afa158015610d26573d6000803e3d6000fd5b505050506040513d601f19601f82011682018060405250810190610d4a9190613240565b9050600073ffffffffffffffffffffffffffffffffffffffff168173ffffffffffffffffffffffffffffffffffffffff1603610dbb576040517f08c379a0000000000000000000000000000000000000000000000000000000008152600401610db2906132e2565b60405180910390fd5b8073ffffffffffffffffffffffffffffffffffffffff1663a9059cbb600060040160009054906101000a900473ffffffffffffffffffffffffffffffffffffffff168373ffffffffffffffffffffffffffffffffffffffff166370a08231306040518263ffffffff1660e01b8152600401610e369190612d07565b602060405180830381865afa158015610e53573d6000803e3d6000fd5b505050506040513d601f19601f82011682018060405250810190610e779190613317565b6040518363ffffffff1660e01b8152600401610e94929190613344565b6020604051808303816000875af1158015610eb3573d6000803e3d6000fd5b505050506040513d601f19601f82011682018060405250810190610ed79190613382565b5050565b600060030160009054906101000a900467ffffffffffffffff1667ffffffffffffffff164210158015610f315750600060030160089054906101000a900467ffffffffffffffff1667ffffffffffffffff164211155b610f70576040517f08c379a0000000000000000000000000000000000000000000000000000000008152600401610f67906133fb565b60405180910390fd5b6000600601543411158015610f8a57506000600501543410155b610fc9576040517f08c379a0000000000000000000000000000000000000000000000000000000008152600401610fc090613467565b60405180910390fd5b60007f00000000000000000000000000000000000000000000000000000000000000006012610ff891906134b6565b600a611004919061361e565b600060010154346110159190613669565b61101f91906136da565b90506000800160009054906101000a900460ff16156110825761104283836114d5565b611081576040517f08c379a000000000000000000000000000000000000000000000000000000000815260040161107890613757565b60405180910390fd5b5b60006008015447346110949190613777565b11156110d5576040517f08c379a00000000000000000000000000000000000000000000000000000000081526004016110cc906137f7565b60405180910390fd5b60006007015447106110fd576001600e60146101000a81548160ff0219169083151502179055505b600e60159054906101000a900460ff16156113b85780600c60009054906101000a900473ffffffffffffffffffffffffffffffffffffffff1673ffffffffffffffffffffffffffffffffffffffff166370a08231306040518263ffffffff1660e01b815260040161116e9190612d07565b602060405180830381865afa15801561118b573d6000803e3d6000fd5b505050506040513d601f19601f820116820180604052508101906111af9190613317565b10156113b7576000600e60009054906101000a900473ffffffffffffffffffffffffffffffffffffffff1673ffffffffffffffffffffffffffffffffffffffff1663fbccedae6040518163ffffffff1660e01b8152600401602060405180830381865afa158015611224573d6000803e3d6000fd5b505050506040513d601f19601f820116820180604052508101906112489190613317565b90508181600c60009054906101000a900473ffffffffffffffffffffffffffffffffffffffff1673ffffffffffffffffffffffffffffffffffffffff166370a08231306040518263ffffffff1660e01b81526004016112a79190612d07565b602060405180830381865afa1580156112c4573d6000803e3d6000fd5b505050506040513d601f19601f820116820180604052508101906112e89190613317565b6112f29190613777565b1015611333576040517f08c379a000000000000000000000000000000000000000000000000000000000815260040161132a90613863565b60405180910390fd5b600e60009054906101000a900473ffffffffffffffffffffffffffffffffffffffff1673ffffffffffffffffffffffffffffffffffffffff166386d1a69f6040518163ffffffff1660e01b8152600401600060405180830381600087803b15801561139d57600080fd5b505af11580156113b1573d6000803e3d6000fd5b50505050505b5b600c60009054906101000a900473ffffffffffffffffffffffffffffffffffffffff1673ffffffffffffffffffffffffffffffffffffffff1663a9059cbb33836040518363ffffffff1660e01b8152600401611415929190613344565b6020604051808303816000875af1158015611434573d6000803e3d6000fd5b505050506040513d601f19601f820116820180604052508101906114589190613382565b611497576040517f08c379a000000000000000000000000000000000000000000000000000000000815260040161148e906138cf565b60405180910390fd5b7f4da47ba0d1e881f0ec30f86a50eafb90abb9641d4757b8968faa3a35701dab7533826040516114c8929190613344565b60405180910390a1505050565b600080336040516020016114e99190613937565b60405160208183030381529060405280519060200120905061154f848480806020026020016040519081016040528093929190818152602001838360200280828437600081840152601f19601f82011690508083019250505050505050600d54836126d2565b91505092915050565b601060009054906101000a900473ffffffffffffffffffffffffffffffffffffffff1681565b600060040160009054906101000a900473ffffffffffffffffffffffffffffffffffffffff1673ffffffffffffffffffffffffffffffffffffffff163373ffffffffffffffffffffffffffffffffffffffff1614611611576040517f08c379a00000000000000000000000000000000000000000000000000000000081526004016116089061319f565b60405180910390fd5b42600060030160089054906101000a900467ffffffffffffffff1667ffffffffffffffff1610611676576040517f08c379a000000000000000000000000000000000000000000000000000000000815260040161166d9061399e565b60405180910390fd5b600e60159054906101000a900460ff161561170e57600e60009054906101000a900473ffffffffffffffffffffffffffffffffffffffff1673ffffffffffffffffffffffffffffffffffffffff166386d1a69f6040518163ffffffff1660e01b8152600401600060405180830381600087803b1580156116f557600080fd5b505af1158015611709573d6000803e3d6000fd5b505050505b600c60009054906101000a900473ffffffffffffffffffffffffffffffffffffffff1673ffffffffffffffffffffffffffffffffffffffff1663a9059cbb33600c60009054906101000a900473ffffffffffffffffffffffffffffffffffffffff1673ffffffffffffffffffffffffffffffffffffffff166370a08231306040518263ffffffff1660e01b81526004016117a89190612d07565b602060405180830381865afa1580156117c5573d6000803e3d6000fd5b505050506040513d601f19601f820116820180604052508101906117e99190613317565b6040518363ffffffff1660e01b8152600401611806929190613344565b6020604051808303816000875af1158015611825573d6000803e3d6000fd5b505050506040513d601f19601f820116820180604052508101906118499190613382565b611888576040517f08c379a000000000000000000000000000000000000000000000000000000000815260040161187f906138cf565b60405180910390fd5b565b7f000000000000000000000000000000000000000000000000000000000000000081565b42600060030160089054906101000a900467ffffffffffffffff1667ffffffffffffffff1610611913576040517f08c379a000000000000000000000000000000000000000000000000000000000815260040161190a9061399e565b60405180910390fd5b60001515600e60149054906101000a900460ff16151514611969576040517f08c379a000000000000000000000000000000000000000000000000000000000815260040161196090613a0a565b60405180910390fd5b6000600c60009054906101000a900473ffffffffffffffffffffffffffffffffffffffff1673ffffffffffffffffffffffffffffffffffffffff166370a08231336040518263ffffffff1660e01b81526004016119c69190612d07565b602060405180830381865afa1580156119e3573d6000803e3d6000fd5b505050506040513d601f19601f82011682018060405250810190611a079190613317565b9050600c60009054906101000a900473ffffffffffffffffffffffffffffffffffffffff1673ffffffffffffffffffffffffffffffffffffffff166323b872dd33600060040160009054906101000a900473ffffffffffffffffffffffffffffffffffffffff16600c60009054906101000a900473ffffffffffffffffffffffffffffffffffffffff1673ffffffffffffffffffffffffffffffffffffffff166370a08231336040518263ffffffff1660e01b8152600401611ac99190612d07565b602060405180830381865afa158015611ae6573d6000803e3d6000fd5b505050506040513d601f19601f82011682018060405250810190611b0a9190613317565b6040518463ffffffff1660e01b8152600401611b2893929190613a2a565b6020604051808303816000875af1158015611b47573d6000803e3d6000fd5b505050506040513d601f19601f82011682018060405250810190611b6b9190613382565b611baa576040517f08c379a0000000000000000000000000000000000000000000000000000000008152600401611ba1906138cf565b60405180910390fd5b60003373ffffffffffffffffffffffffffffffffffffffff166000600101547f00000000000000000000000000000000000000000000000000000000000000006012611bf691906134b6565b600a611c02919061361e565b84611c0d9190613669565b611c1791906136da565b604051611c2390613a92565b60006040518083038185875af1925050503d8060008114611c60576040519150601f19603f3d011682016040523d82523d6000602084013e611c65565b606091505b5050905080611ca9576040517f08c379a0000000000000000000000000000000000000000000000000000000008152600401611ca090613af3565b60405180910390fd5b5050565b600060040160009054906101000a900473ffffffffffffffffffffffffffffffffffffffff1673ffffffffffffffffffffffffffffffffffffffff163373ffffffffffffffffffffffffffffffffffffffff1614611d40576040517f08c379a0000000000000000000000000000000000000000000000000000000008152600401611d379061319f565b60405180910390fd5b42600060030160089054906101000a900467ffffffffffffffff1667ffffffffffffffff1610611da5576040517f08c379a0000000000000000000000000000000000000000000000000000000008152600401611d9c9061399e565b60405180910390fd5b60011515600e60149054906101000a900460ff16151514611dfb576040517f08c379a0000000000000000000000000000000000000000000000000000000008152600401611df290613b5f565b60405180910390fd5b60011515600960000160009054906101000a900460ff16151514611e54576040517f08c379a0000000000000000000000000000000000000000000000000000000008152600401611e4b90613bcb565b60405180910390fd5b60007f00000000000000000000000000000000000000000000000000000000000000006012611e8391906134b6565b600a611e8f919061361e565b606447600960020160009054906101000a900460ff1660ff16611eb29190613669565b611ebc91906136da565b600960010154611ecc9190613669565b611ed691906136da565b905080600c60009054906101000a900473ffffffffffffffffffffffffffffffffffffffff1673ffffffffffffffffffffffffffffffffffffffff166370a08231306040518263ffffffff1660e01b8152600401611f349190612d07565b602060405180830381865afa158015611f51573d6000803e3d6000fd5b505050506040513d601f19601f82011682018060405250810190611f759190613317565b1015611fb6576040517f08c379a0000000000000000000000000000000000000000000000000000000008152600401611fad90613c37565b60405180910390fd5b600c60009054906101000a900473ffffffffffffffffffffffffffffffffffffffff1673ffffffffffffffffffffffffffffffffffffffff1663095ea7b3600f60009054906101000a900473ffffffffffffffffffffffffffffffffffffffff16600c60009054906101000a900473ffffffffffffffffffffffffffffffffffffffff1673ffffffffffffffffffffffffffffffffffffffff166370a08231306040518263ffffffff1660e01b81526004016120729190612d07565b602060405180830381865afa15801561208f573d6000803e3d6000fd5b505050506040513d601f19601f820116820180604052508101906120b39190613317565b6040518363ffffffff1660e01b81526004016120d0929190613344565b6020604051808303816000875af11580156120ef573d6000803e3d6000fd5b505050506040513d601f19601f820116820180604052508101906121139190613382565b612152576040517f08c379a000000000000000000000000000000000000000000000000000000000815260040161214990613ca3565b60405180910390fd5b600f60009054906101000a900473ffffffffffffffffffffffffffffffffffffffff1673ffffffffffffffffffffffffffffffffffffffff1663f305d719606447600960020160009054906101000a900460ff1660ff166121b39190613669565b6121bd91906136da565b600c60009054906101000a900473ffffffffffffffffffffffffffffffffffffffff1684600080600060040160009054906101000a900473ffffffffffffffffffffffffffffffffffffffff166103e8426122189190613777565b6040518863ffffffff1660e01b815260040161223996959493929190613cfe565b60606040518083038185885af1158015612257573d6000803e3d6000fd5b50505050506040513d601f19601f8201168201806040525081019061227c9190613d5f565b505050600960020160019054906101000a900467ffffffffffffffff1667ffffffffffffffff16426122ae9190613777565b600960020160016101000a81548167ffffffffffffffff021916908367ffffffffffffffff160217905550600060040160009054906101000a900473ffffffffffffffffffffffffffffffffffffffff1673ffffffffffffffffffffffffffffffffffffffff166108fc479081150290604051600060405180830381858888f19350505050158015612344573d6000803e3d6000fd5b5050565b600060040160009054906101000a900473ffffffffffffffffffffffffffffffffffffffff1673ffffffffffffffffffffffffffffffffffffffff163373ffffffffffffffffffffffffffffffffffffffff16146123db576040517f08c379a00000000000000000000000000000000000000000000000000000000081526004016123d29061319f565b60405180910390fd5b42600060030160089054906101000a900467ffffffffffffffff1667ffffffffffffffff1610612440576040517f08c379a00000000000000000000000000000000000000000000000000000000081526004016124379061399e565b60405180910390fd5b60001515600960000160009054906101000a900460ff16151514612499576040517f08c379a000000000000000000000000000000000000000000000000000000000815260040161249090613dfe565b60405180910390fd5b60011515600e60149054906101000a900460ff161515146124ef576040517f08c379a00000000000000000000000000000000000000000000000000000000081526004016124e690613a0a565b60405180910390fd5b600060040160009054906101000a900473ffffffffffffffffffffffffffffffffffffffff1673ffffffffffffffffffffffffffffffffffffffff166108fc479081150290604051600060405180830381858888f1935050505015801561255a573d6000803e3d6000fd5b50565b600060040160009054906101000a900473ffffffffffffffffffffffffffffffffffffffff1673ffffffffffffffffffffffffffffffffffffffff163373ffffffffffffffffffffffffffffffffffffffff16146125f0576040517f08c379a00000000000000000000000000000000000000000000000000000000081526004016125e79061319f565b60405180910390fd5b80600d8190555050565b600060040160009054906101000a900473ffffffffffffffffffffffffffffffffffffffff1673ffffffffffffffffffffffffffffffffffffffff163373ffffffffffffffffffffffffffffffffffffffff161461268d576040517f08c379a00000000000000000000000000000000000000000000000000000000081526004016126849061319f565b60405180910390fd5b806000800160006101000a81548160ff02191690831515021790555050565b600c60009054906101000a900473ffffffffffffffffffffffffffffffffffffffff1681565b6000826126df85846126e9565b1490509392505050565b60008082905060005b84518110156127345761271f8286838151811061271257612711613e1e565b5b602002602001015161273f565b9150808061272c90613e4d565b9150506126f2565b508091505092915050565b600081831061275757612752828461276a565b612762565b612761838361276a565b5b905092915050565b600082600052816020526040600020905092915050565b600073ffffffffffffffffffffffffffffffffffffffff82169050919050565b6000819050919050565b60006127c66127c16127bc84612781565b6127a1565b612781565b9050919050565b60006127d8826127ab565b9050919050565b60006127ea826127cd565b9050919050565b6127fa816127df565b82525050565b600060208201905061281560008301846127f1565b92915050565b600080fd5b600080fd5b60008115159050919050565b61283a81612825565b811461284557600080fd5b50565b60008135905061285781612831565b92915050565b6000819050919050565b6128708161285d565b811461287b57600080fd5b50565b60008135905061288d81612867565b92915050565b600060ff82169050919050565b6128a981612893565b81146128b457600080fd5b50565b6000813590506128c6816128a0565b92915050565b600067ffffffffffffffff82169050919050565b6128e9816128cc565b81146128f457600080fd5b50565b600081359050612906816128e0565b92915050565b600080600080608085870312156129265761292561281b565b5b600061293487828801612848565b94505060206129458782880161287e565b9350506040612956878288016128b7565b9250506060612967878288016128f7565b91505092959194509250565b61297c81612825565b82525050565b61298b8161285d565b82525050565b61299a81612893565b82525050565b6129a9816128cc565b82525050565b60006080820190506129c46000830187612973565b6129d16020830186612982565b6129de6040830185612991565b6129eb60608301846129a0565b95945050505050565b60006129ff82612781565b9050919050565b612a0f816129f4565b82525050565b600061014082019050612a2b600083018d612973565b612a38602083018c612982565b612a45604083018b612982565b612a52606083018a6129a0565b612a5f60808301896129a0565b612a6c60a0830188612a06565b612a7960c0830187612982565b612a8660e0830186612982565b612a94610100830185612982565b612aa2610120830184612982565b9b9a5050505050505050505050565b612aba816129f4565b8114612ac557600080fd5b50565b600081359050612ad781612ab1565b92915050565b600060208284031215612af357612af261281b565b5b6000612b0184828501612ac8565b91505092915050565b60008060008060008060008060008060006101608c8e031215612b3057612b2f61281b565b5b6000612b3e8e828f01612848565b9b50506020612b4f8e828f01612ac8565b9a50506040612b608e828f0161287e565b9950506060612b718e828f0161287e565b9850506080612b828e828f0161287e565b97505060a0612b938e828f0161287e565b96505060c0612ba48e828f0161287e565b95505060e0612bb58e828f0161287e565b945050610100612bc78e828f016128f7565b935050610120612bd98e828f016128f7565b925050610140612beb8e828f01612ac8565b9150509295989b509295989b9093969950565b6000602082019050612c136000830184612973565b92915050565b600080fd5b600080fd5b600080fd5b60008083601f840112612c3e57612c3d612c19565b5b8235905067ffffffffffffffff811115612c5b57612c5a612c1e565b5b602083019150836020820283011115612c7757612c76612c23565b5b9250929050565b60008060208385031215612c9557612c9461281b565b5b600083013567ffffffffffffffff811115612cb357612cb2612820565b5b612cbf85828601612c28565b92509250509250929050565b6000612cd6826127cd565b9050919050565b612ce681612ccb565b82525050565b6000602082019050612d016000830184612cdd565b92915050565b6000602082019050612d1c6000830184612a06565b92915050565b6000819050919050565b612d3581612d22565b8114612d4057600080fd5b50565b600081359050612d5281612d2c565b92915050565b600060208284031215612d6e57612d6d61281b565b5b6000612d7c84828501612d43565b91505092915050565b600060208284031215612d9b57612d9a61281b565b5b6000612da984828501612848565b91505092915050565b600082825260208201905092915050565b7f50726553616c653a206e6f7420666163746f727920636f6e7472616374000000600082015250565b6000612df9601d83612db2565b9150612e0482612dc3565b602082019050919050565b60006020820190508181036000830152612e2881612dec565b9050919050565b7f63616e6e6f7420756e7365742064657800000000000000000000000000000000600082015250565b6000612e65601083612db2565b9150612e7082612e2f565b602082019050919050565b60006020820190508181036000830152612e9481612e58565b9050919050565b7f4e6f7420417574686f72697a6564000000000000000000000000000000000000600082015250565b6000612ed1600e83612db2565b9150612edc82612e9b565b602082019050919050565b60006020820190508181036000830152612f0081612ec4565b9050919050565b7f50726553616c653a20746f6b656e20697320746865207a65726f20616464726560008201527f7373000000000000000000000000000000000000000000000000000000000000602082015250565b6000612f63602283612db2565b9150612f6e82612f07565b604082019050919050565b60006020820190508181036000830152612f9281612f56565b9050919050565b7f50726553616c653a207261746520697320300000000000000000000000000000600082015250565b6000612fcf601283612db2565b9150612fda82612f99565b602082019050919050565b60006020820190508181036000830152612ffe81612fc2565b9050919050565b7f50726553616c653a20616d6f756e742069732030000000000000000000000000600082015250565b600061303b601483612db2565b915061304682613005565b602082019050919050565b6000602082019050818103600083015261306a8161302e565b9050919050565b7f50726553616c653a20696e76616c69642074696d650000000000000000000000600082015250565b60006130a7601583612db2565b91506130b282613071565b602082019050919050565b600060208201905081810360008301526130d68161309a565b9050919050565b60006130f86130f36130ee846128cc565b6127a1565b61285d565b9050919050565b613108816130dd565b82525050565b600060808201905061312360008301876130ff565b61313060208301866130ff565b61313d6040830185612982565b61314a6060830184612982565b95945050505050565b7f50726553616c653a206e6f74206f776e65720000000000000000000000000000600082015250565b6000613189601283612db2565b915061319482613153565b602082019050919050565b600060208201905081810360008301526131b88161317c565b9050919050565b7f50726553616c653a206c6f636b2075702074696d650000000000000000000000600082015250565b60006131f5601583612db2565b9150613200826131bf565b602082019050919050565b60006020820190508181036000830152613224816131e8565b9050919050565b60008151905061323a81612ab1565b92915050565b6000602082840312156132565761325561281b565b5b60006132648482850161322b565b91505092915050565b60006040820190506132826000830185612a06565b61328f6020830184612a06565b9392505050565b7f50726553616c653a2070616972206e6f7420666f756e64000000000000000000600082015250565b60006132cc601783612db2565b91506132d782613296565b602082019050919050565b600060208201905081810360008301526132fb816132bf565b9050919050565b60008151905061331181612867565b92915050565b60006020828403121561332d5761332c61281b565b5b600061333b84828501613302565b91505092915050565b60006040820190506133596000830185612a06565b6133666020830184612982565b9392505050565b60008151905061337c81612831565b92915050565b6000602082840312156133985761339761281b565b5b60006133a68482850161336d565b91505092915050565b7f50726553616c653a2073616c65206973206e6f74206163746976650000000000600082015250565b60006133e5601b83612db2565b91506133f0826133af565b602082019050919050565b60006020820190508181036000830152613414816133d8565b9050919050565b7f50726553616c653a20616d6f756e74206973206e6f7420696e2072616e676500600082015250565b6000613451601f83612db2565b915061345c8261341b565b602082019050919050565b6000602082019050818103600083015261348081613444565b9050919050565b7f4e487b7100000000000000000000000000000000000000000000000000000000600052601160045260246000fd5b60006134c182612893565b91506134cc83612893565b9250828203905060ff8111156134e5576134e4613487565b5b92915050565b60008160011c9050919050565b6000808291508390505b60018511156135425780860481111561351e5761351d613487565b5b600185161561352d5780820291505b808102905061353b856134eb565b9450613502565b94509492505050565b60008261355b5760019050613617565b816135695760009050613617565b816001811461357f5760028114613589576135b8565b6001915050613617565b60ff84111561359b5761359a613487565b5b8360020a9150848211156135b2576135b1613487565b5b50613617565b5060208310610133831016604e8410600b84101617156135ed5782820a9050838111156135e8576135e7613487565b5b613617565b6135fa84848460016134f8565b9250905081840481111561361157613610613487565b5b81810290505b9392505050565b60006136298261285d565b915061363483612893565b92506136617fffffffffffffffffffffffffffffffffffffffffffffffffffffffffffffffff848461354b565b905092915050565b60006136748261285d565b915061367f8361285d565b925082820261368d8161285d565b915082820484148315176136a4576136a3613487565b5b5092915050565b7f4e487b7100000000000000000000000000000000000000000000000000000000600052601260045260246000fd5b60006136e58261285d565b91506136f08361285d565b925082613700576136ff6136ab565b5b828204905092915050565b7f4e6f742077686974656c69737465640000000000000000000000000000000000600082015250565b6000613741600f83612db2565b915061374c8261370b565b602082019050919050565b6000602082019050818103600083015261377081613734565b9050919050565b60006137828261285d565b915061378d8361285d565b92508282019050808211156137a5576137a4613487565b5b92915050565b7f4861726420636170000000000000000000000000000000000000000000000000600082015250565b60006137e1600883612db2565b91506137ec826137ab565b602082019050919050565b60006020820190508181036000830152613810816137d4565b9050919050565b7f4e6f7420656e6f75676820746f6b656e73000000000000000000000000000000600082015250565b600061384d601183612db2565b915061385882613817565b602082019050919050565b6000602082019050818103600083015261387c81613840565b9050919050565b7f50726553616c653a207472616e73666572206661696c65640000000000000000600082015250565b60006138b9601883612db2565b91506138c482613883565b602082019050919050565b600060208201905081810360008301526138e8816138ac565b9050919050565b60008160601b9050919050565b6000613907826138ef565b9050919050565b6000613919826138fc565b9050919050565b61393161392c826129f4565b61390e565b82525050565b60006139438284613920565b60148201915081905092915050565b7f50726553616c653a2073616c6520697320616374697665000000000000000000600082015250565b6000613988601783612db2565b915061399382613952565b602082019050919050565b600060208201905081810360008301526139b78161397b565b9050919050565b7f50726553616c653a20736f667420636170207265616368656400000000000000600082015250565b60006139f4601983612db2565b91506139ff826139be565b602082019050919050565b60006020820190508181036000830152613a23816139e7565b9050919050565b6000606082019050613a3f6000830186612a06565b613a4c6020830185612a06565b613a596040830184612982565b949350505050565b600081905092915050565b50565b6000613a7c600083613a61565b9150613a8782613a6c565b600082019050919050565b6000613a9d82613a6f565b9150819050919050565b7f50726553616c653a207769746864726177206661696c65640000000000000000600082015250565b6000613add601883612db2565b9150613ae882613aa7565b602082019050919050565b60006020820190508181036000830152613b0c81613ad0565b9050919050565b7f50726553616c653a20736f667420636170206e6f742072656163686564000000600082015250565b6000613b49601d83612db2565b9150613b5482613b13565b602082019050919050565b60006020820190508181036000830152613b7881613b3c565b9050919050565b7f50726553616c653a206175746f4465782069732064697361626c656400000000600082015250565b6000613bb5601c83612db2565b9150613bc082613b7f565b602082019050919050565b60006020820190508181036000830152613be481613ba8565b9050919050565b7f50726553616c653a206e6f7420656e6f75676820746f6b656e73000000000000600082015250565b6000613c21601a83612db2565b9150613c2c82613beb565b602082019050919050565b60006020820190508181036000830152613c5081613c14565b9050919050565b7f50726553616c653a20617070726f7665206661696c6564000000000000000000600082015250565b6000613c8d601783612db2565b9150613c9882613c57565b602082019050919050565b60006020820190508181036000830152613cbc81613c80565b9050919050565b6000819050919050565b6000613ce8613ce3613cde84613cc3565b6127a1565b61285d565b9050919050565b613cf881613ccd565b82525050565b600060c082019050613d136000830189612a06565b613d206020830188612982565b613d2d6040830187613cef565b613d3a6060830186613cef565b613d476080830185612a06565b613d5460a0830184612982565b979650505050505050565b600080600060608486031215613d7857613d7761281b565b5b6000613d8686828701613302565b9350506020613d9786828701613302565b9250506040613da886828701613302565b9150509250925092565b7f50726553616c653a206175746f44657820697320656e61626c65640000000000600082015250565b6000613de8601b83612db2565b9150613df382613db2565b602082019050919050565b60006020820190508181036000830152613e1781613ddb565b9050919050565b7f4e487b7100000000000000000000000000000000000000000000000000000000600052603260045260246000fd5b6000613e588261285d565b91507fffffffffffffffffffffffffffffffffffffffffffffffffffffffffffffffff8203613e8a57613e89613487565b5b60018201905091905056fea264697066735822122025bce09a3597debcb80420c1729cb790a4751f5dc8e02160a69d8fe21fb3a40664736f6c634300081100336101206040526040516200101f3803806200101f83398181016040528101906200002a91906200025f565b600073ffffffffffffffffffffffffffffffffffffffff168673ffffffffffffffffffffffffffffffffffffffff16036200009c576040517f08c379a0000000000000000000000000000000000000000000000000000000008152600401620000939062000382565b60405180910390fd5b8573ffffffffffffffffffffffffffffffffffffffff1660808173ffffffffffffffffffffffffffffffffffffffff16815250508467ffffffffffffffff1660a08167ffffffffffffffff16815250508367ffffffffffffffff1660c08167ffffffffffffffff16815250508260ff1660e08160ff16815250508160ff166101008160ff168152505080600160006101000a81548173ffffffffffffffffffffffffffffffffffffffff021916908373ffffffffffffffffffffffffffffffffffffffff160217905550505050505050620003a4565b600080fd5b600073ffffffffffffffffffffffffffffffffffffffff82169050919050565b6000620001a48262000177565b9050919050565b620001b68162000197565b8114620001c257600080fd5b50565b600081519050620001d681620001ab565b92915050565b600067ffffffffffffffff82169050919050565b620001fb81620001dc565b81146200020757600080fd5b50565b6000815190506200021b81620001f0565b92915050565b600060ff82169050919050565b620002398162000221565b81146200024557600080fd5b50565b60008151905062000259816200022e565b92915050565b60008060008060008060c087890312156200027f576200027e62000172565b5b60006200028f89828a01620001c5565b9650506020620002a289828a016200020a565b9550506040620002b589828a016200020a565b9450506060620002c889828a0162000248565b9350506080620002db89828a0162000248565b92505060a0620002ee89828a01620001c5565b9150509295509295509295565b600082825260208201905092915050565b7f56657374696e6757616c6c65743a2062656e6566696369617279206973207a6560008201527f726f206164647265737300000000000000000000000000000000000000000000602082015250565b60006200036a602a83620002fb565b915062000377826200030c565b604082019050919050565b600060208201905081810360008301526200039d816200035b565b9050919050565b60805160a05160c05160e05161010051610c2f620003f060003960006102f6015260006101f301526000610407015260008181610455015261077d0152600061042f0152610c2f6000f3fe6080604052600436106100745760003560e01c806386d1a69f1161004e57806386d1a69f14610113578063961325211461012a578063be9a655514610155578063fbccedae146101805761007b565b80630a17b06b146100805780630fb5a6b4146100bd57806338af3eed146100e85761007b565b3661007b57005b600080fd5b34801561008c57600080fd5b506100a760048036038101906100a29190610808565b6101ab565b6040516100b4919061084e565b60405180910390f35b3480156100c957600080fd5b506100d2610403565b6040516100df9190610878565b60405180910390f35b3480156100f457600080fd5b506100fd61042b565b60405161010a91906108d4565b60405180910390f35b34801561011f57600080fd5b50610128610453565b005b34801561013657600080fd5b5061013f610770565b60405161014c919061084e565b60405180910390f35b34801561016157600080fd5b5061016a610779565b6040516101779190610878565b60405180910390f35b34801561018c57600080fd5b506101956107a1565b6040516101a2919061084e565b60405180910390f35b60006101b5610779565b67ffffffffffffffff168267ffffffffffffffff1610156101d957600090506103fe565b6000600160149054906101000a900460ff166102c85760647f000000000000000000000000000000000000000000000000000000000000000060ff16600160009054906101000a900473ffffffffffffffffffffffffffffffffffffffff1673ffffffffffffffffffffffffffffffffffffffff166370a08231306040518263ffffffff1660e01b815260040161027091906108d4565b602060405180830381865afa15801561028d573d6000803e3d6000fd5b505050506040513d601f19601f820116820180604052508101906102b1919061091b565b6102bb9190610977565b6102c591906109e8565b90505b60006102d2610403565b6102da610779565b856102e59190610a19565b6102ef9190610a55565b90508160647f000000000000000000000000000000000000000000000000000000000000000060ff16610320610770565b600160009054906101000a900473ffffffffffffffffffffffffffffffffffffffff1673ffffffffffffffffffffffffffffffffffffffff166370a08231306040518263ffffffff1660e01b815260040161037b91906108d4565b602060405180830381865afa158015610398573d6000803e3d6000fd5b505050506040513d601f19601f820116820180604052508101906103bc919061091b565b6103c69190610a86565b6103d09190610977565b8367ffffffffffffffff166103e59190610977565b6103ef91906109e8565b6103f99190610a86565b925050505b919050565b60007f0000000000000000000000000000000000000000000000000000000000000000905090565b60007f0000000000000000000000000000000000000000000000000000000000000000905090565b7f000000000000000000000000000000000000000000000000000000000000000067ffffffffffffffff164210156104c0576040517f08c379a00000000000000000000000000000000000000000000000000000000081526004016104b790610b17565b60405180910390fd5b60006104ca6107a1565b9050600160149054906101000a900460ff166104fb5760018060146101000a81548160ff0219169083151502179055505b600160009054906101000a900473ffffffffffffffffffffffffffffffffffffffff1673ffffffffffffffffffffffffffffffffffffffff166370a08231306040518263ffffffff1660e01b815260040161055691906108d4565b602060405180830381865afa158015610573573d6000803e3d6000fd5b505050506040513d601f19601f82011682018060405250810190610597919061091b565b81111561063d57600160009054906101000a900473ffffffffffffffffffffffffffffffffffffffff1673ffffffffffffffffffffffffffffffffffffffff166370a08231306040518263ffffffff1660e01b81526004016105f991906108d4565b602060405180830381865afa158015610616573d6000803e3d6000fd5b505050506040513d601f19601f8201168201806040525081019061063a919061091b565b90505b8060008082825461064e9190610a86565b92505081905550600160009054906101000a900473ffffffffffffffffffffffffffffffffffffffff1673ffffffffffffffffffffffffffffffffffffffff167fc0e523490dd523c33b1878c9eb14ff46991e3f5b2cd33710918618f2a39cba1b826040516106bd919061084e565b60405180910390a2600160009054906101000a900473ffffffffffffffffffffffffffffffffffffffff1673ffffffffffffffffffffffffffffffffffffffff1663a9059cbb61070b61042b565b836040518363ffffffff1660e01b8152600401610729929190610b37565b6020604051808303816000875af1158015610748573d6000803e3d6000fd5b505050506040513d601f19601f8201168201806040525081019061076c9190610b98565b5050565b60008054905090565b60007f0000000000000000000000000000000000000000000000000000000000000000905090565b60006107ab610770565b6107b4426101ab565b6107be9190610bc5565b905090565b600080fd5b600067ffffffffffffffff82169050919050565b6107e5816107c8565b81146107f057600080fd5b50565b600081359050610802816107dc565b92915050565b60006020828403121561081e5761081d6107c3565b5b600061082c848285016107f3565b91505092915050565b6000819050919050565b61084881610835565b82525050565b6000602082019050610863600083018461083f565b92915050565b610872816107c8565b82525050565b600060208201905061088d6000830184610869565b92915050565b600073ffffffffffffffffffffffffffffffffffffffff82169050919050565b60006108be82610893565b9050919050565b6108ce816108b3565b82525050565b60006020820190506108e960008301846108c5565b92915050565b6108f881610835565b811461090357600080fd5b50565b600081519050610915816108ef565b92915050565b600060208284031215610931576109306107c3565b5b600061093f84828501610906565b91505092915050565b7f4e487b7100000000000000000000000000000000000000000000000000000000600052601160045260246000fd5b600061098282610835565b915061098d83610835565b925082820261099b81610835565b915082820484148315176109b2576109b1610948565b5b5092915050565b7f4e487b7100000000000000000000000000000000000000000000000000000000600052601260045260246000fd5b60006109f382610835565b91506109fe83610835565b925082610a0e57610a0d6109b9565b5b828204905092915050565b6000610a24826107c8565b9150610a2f836107c8565b9250828203905067ffffffffffffffff811115610a4f57610a4e610948565b5b92915050565b6000610a60826107c8565b9150610a6b836107c8565b925082610a7b57610a7a6109b9565b5b828204905092915050565b6000610a9182610835565b9150610a9c83610835565b9250828201905080821115610ab457610ab3610948565b5b92915050565b600082825260208201905092915050565b7f56657374696e6757616c6c65743a206e6f742073746172746564000000000000600082015250565b6000610b01601a83610aba565b9150610b0c82610acb565b602082019050919050565b60006020820190508181036000830152610b3081610af4565b9050919050565b6000604082019050610b4c60008301856108c5565b610b59602083018461083f565b9392505050565b60008115159050919050565b610b7581610b60565b8114610b8057600080fd5b50565b600081519050610b9281610b6c565b92915050565b600060208284031215610bae57610bad6107c3565b5b6000610bbc84828501610b83565b91505092915050565b6000610bd082610835565b9150610bdb83610835565b9250828203905081811115610bf357610bf2610948565b5b9291505056fea264697066735822122043a42e142280049a89594b90fb46d7abc757f360e90f5350c3b0716a8ba41f6064736f6c63430008110033a2646970667358221220df2f18275287bc37213ec615cc60069cfec4301d5d146235ed20e842faab4bb364736f6c63430008110033",
  "linkReferences": {},
  "deployedLinkReferences": {}
}