{
  "_format": "hh-sol-artifact-1",
  "contractName": "PreSale",
  "sourceName": "contracts/preSale.sol",
  "abi": [
    {
      "inputs": [
        {
          "internalType": "address",
          "name": "_token",
          "type": "address"
        }
      ],
      "stateMutability": "nonpayable",
      "type": "constructor"
    },
    {
      "anonymous": false,
      "inputs": [
        {
          "indexed": false,
          "internalType": "uint256",
          "name": "startTime",
          "type": "uint256"
        },
        {
          "indexed": false,
          "internalType": "uint256",
          "name": "endTime",
          "type": "uint256"
        },
        {
          "indexed": false,
          "internalType": "uint256",
          "name": "rate",
          "type": "uint256"
        },
        {
          "indexed": false,
          "internalType": "uint256",
          "name": "amount",
          "type": "uint256"
        }
      ],
      "name": "SaleStart",
      "type": "event"
    },
    {
      "anonymous": false,
      "inputs": [
        {
          "indexed": false,
          "internalType": "address",
          "name": "buyer",
          "type": "address"
        },
        {
          "indexed": false,
          "internalType": "uint256",
          "name": "amount",
          "type": "uint256"
        }
      ],
      "name": "TokenSale",
      "type": "event"
    },
    {
      "inputs": [
        {
          "internalType": "bool",
          "name": "_enabled",
          "type": "bool"
        },
        {
          "internalType": "uint256",
          "name": "_dexRate",
          "type": "uint256"
        },
        {
          "internalType": "uint8",
          "name": "_liquidity",
          "type": "uint8"
        },
        {
          "internalType": "uint64",
          "name": "_lockUpTime",
          "type": "uint64"
        }
      ],
      "name": "Dex",
      "outputs": [],
      "stateMutability": "nonpayable",
      "type": "function"
    },
    {
      "inputs": [],
      "name": "addLiquidity",
      "outputs": [],
      "stateMutability": "payable",
      "type": "function"
    },
    {
      "inputs": [],
      "name": "autoDex",
      "outputs": [
        {
          "internalType": "bool",
          "name": "enabled",
          "type": "bool"
        },
        {
          "internalType": "uint256",
          "name": "rate",
          "type": "uint256"
        },
        {
          "internalType": "uint8",
          "name": "liquidity",
          "type": "uint8"
        },
        {
          "internalType": "uint64",
          "name": "lockUpTime",
          "type": "uint64"
        }
      ],
      "stateMutability": "view",
      "type": "function"
    },
    {
      "inputs": [
        {
          "internalType": "bytes32[]",
          "name": "_merkleProof",
          "type": "bytes32[]"
        }
      ],
      "name": "buyTokens",
      "outputs": [],
      "stateMutability": "payable",
      "type": "function"
    },
    {
      "inputs": [
        {
          "internalType": "bytes32[]",
          "name": "_merkleProof",
          "type": "bytes32[]"
        },
        {
          "internalType": "address",
          "name": "_adr",
          "type": "address"
        }
      ],
      "name": "checkWhitelist",
      "outputs": [
        {
          "internalType": "bool",
          "name": "",
          "type": "bool"
        }
      ],
      "stateMutability": "view",
      "type": "function"
    },
    {
      "inputs": [
        {
          "internalType": "bool",
          "name": "_whitelist",
          "type": "bool"
        },
        {
          "internalType": "address",
          "name": "_token",
          "type": "address"
        },
        {
          "internalType": "uint256",
          "name": "_rate",
          "type": "uint256"
        },
        {
          "internalType": "uint256",
          "name": "_amount",
          "type": "uint256"
        },
        {
          "internalType": "uint256",
          "name": "_softCap",
          "type": "uint256"
        },
        {
          "internalType": "uint256",
          "name": "_hardCap",
          "type": "uint256"
        },
        {
          "internalType": "uint256",
          "name": "_minVal",
          "type": "uint256"
        },
        {
          "internalType": "uint256",
          "name": "_maxVal",
          "type": "uint256"
        },
        {
          "internalType": "uint64",
          "name": "_startTime",
          "type": "uint64"
        },
        {
          "internalType": "uint64",
          "name": "_endTime",
          "type": "uint64"
        },
        {
          "internalType": "address",
          "name": "_owner",
          "type": "address"
        }
      ],
      "name": "createPreSale",
      "outputs": [
        {
          "internalType": "bool",
          "name": "",
          "type": "bool"
        }
      ],
      "stateMutability": "nonpayable",
      "type": "function"
    },
    {
      "inputs": [
        {
          "internalType": "bytes32",
          "name": "_merkleRoot",
          "type": "bytes32"
        }
      ],
      "name": "editRoot",
      "outputs": [],
      "stateMutability": "nonpayable",
      "type": "function"
    },
    {
      "inputs": [],
      "name": "factory",
      "outputs": [
        {
          "internalType": "contract Factory",
          "name": "",
          "type": "address"
        }
      ],
      "stateMutability": "view",
      "type": "function"
    },
    {
      "inputs": [],
      "name": "factoryContract",
      "outputs": [
        {
          "internalType": "address",
          "name": "",
          "type": "address"
        }
      ],
      "stateMutability": "view",
      "type": "function"
    },
    {
      "inputs": [],
      "name": "sale",
      "outputs": [
        {
          "internalType": "bool",
          "name": "whitelist",
          "type": "bool"
        },
        {
          "internalType": "uint256",
          "name": "rate",
          "type": "uint256"
        },
        {
          "internalType": "uint256",
          "name": "amount",
          "type": "uint256"
        },
        {
          "internalType": "uint64",
          "name": "startTime",
          "type": "uint64"
        },
        {
          "internalType": "uint64",
          "name": "endTime",
          "type": "uint64"
        },
        {
          "internalType": "address",
          "name": "owner",
          "type": "address"
        },
        {
          "internalType": "uint256",
          "name": "minVal",
          "type": "uint256"
        },
        {
          "internalType": "uint256",
          "name": "maxVal",
          "type": "uint256"
        },
        {
          "internalType": "uint256",
          "name": "softCap",
          "type": "uint256"
        },
        {
          "internalType": "uint256",
          "name": "hardCap",
          "type": "uint256"
        }
      ],
      "stateMutability": "view",
      "type": "function"
    },
    {
      "inputs": [
        {
          "internalType": "address",
          "name": "_vestingContract",
          "type": "address"
        }
      ],
      "name": "setVesting",
      "outputs": [],
      "stateMutability": "nonpayable",
      "type": "function"
    },
    {
      "inputs": [
        {
          "internalType": "bool",
          "name": "_whitelist",
          "type": "bool"
        }
      ],
      "name": "setWhitelist",
      "outputs": [],
      "stateMutability": "nonpayable",
      "type": "function"
    },
    {
      "inputs": [],
      "name": "token",
      "outputs": [
        {
          "internalType": "address",
          "name": "",
          "type": "address"
        }
      ],
      "stateMutability": "view",
      "type": "function"
    },
    {
      "inputs": [],
      "name": "uniswapV2Router",
      "outputs": [
        {
          "internalType": "contract IUniswapV2Router02",
          "name": "",
          "type": "address"
        }
      ],
      "stateMutability": "view",
      "type": "function"
    },
    {
      "inputs": [],
      "name": "withdrawETH",
      "outputs": [],
      "stateMutability": "nonpayable",
      "type": "function"
    },
    {
      "inputs": [],
      "name": "withdrawLiquidity",
      "outputs": [],
      "stateMutability": "nonpayable",
      "type": "function"
    },
    {
      "inputs": [],
      "name": "withdrawOwner",
      "outputs": [],
      "stateMutability": "nonpayable",
      "type": "function"
    },
    {
      "inputs": [],
      "name": "withdrawToken",
      "outputs": [],
      "stateMutability": "nonpayable",
      "type": "function"
    },
    {
      "stateMutability": "payable",
      "type": "receive"
    }
  ],
  "bytecode": "0x60c06040526000600e60146101000a81548160ff0219169083151502179055506000600e60156101000a81548160ff0219169083151502179055506000600e60166101000a81548160ff021916908315150217905550737a250d5630b4cf539739df2c5dacb4c659f2488d600f60006101000a81548173ffffffffffffffffffffffffffffffffffffffff021916908373ffffffffffffffffffffffffffffffffffffffff160217905550735c69bee701ef814a2b6a3edd4b1652cb9cc5aa6f601060006101000a81548173ffffffffffffffffffffffffffffffffffffffff021916908373ffffffffffffffffffffffffffffffffffffffff1602179055503480156200010c57600080fd5b506040516200403738038062004037833981810160405281019062000132919062000297565b80600c60006101000a81548173ffffffffffffffffffffffffffffffffffffffff021916908373ffffffffffffffffffffffffffffffffffffffff1602179055508073ffffffffffffffffffffffffffffffffffffffff1663313ce5676040518163ffffffff1660e01b8152600401602060405180830381865afa158015620001bf573d6000803e3d6000fd5b505050506040513d601f19601f82011682018060405250810190620001e5919062000307565b60ff1660a08160ff16815250503373ffffffffffffffffffffffffffffffffffffffff1660808173ffffffffffffffffffffffffffffffffffffffff16815250505062000339565b600080fd5b600073ffffffffffffffffffffffffffffffffffffffff82169050919050565b60006200025f8262000232565b9050919050565b620002718162000252565b81146200027d57600080fd5b50565b600081519050620002918162000266565b92915050565b600060208284031215620002b057620002af6200022d565b5b6000620002c08482850162000280565b91505092915050565b600060ff82169050919050565b620002e181620002c9565b8114620002ed57600080fd5b50565b6000815190506200030181620002d6565b92915050565b60006020828403121562000320576200031f6200022d565b5b60006200033084828501620002f0565b91505092915050565b60805160a051613cb56200038260003960008181610f9f01528181611b5c0152611de901526000818161049901528181610706015281816107f5015261181d0152613cb56000f3fe60806040526004361061010d5760003560e01c8063c45a015511610095578063e8078d9411610064578063e8078d9414610329578063e8cc00ad14610333578063f74766491461034a578063f958a65714610373578063fc0c546a1461039c57610114565b8063c45a0155146102a5578063ca628c78146102d0578063de11c94a146102e7578063e086e5ec1461031257610114565b80636ad1fe02116100dc5780636ad1fe02146101d85780636f6ff3bc1461020c57806371a8ad12146102355780637ea382c114610272578063ab98089f1461028957610114565b80631694505e146101195780631933faac14610144578063397d9675146101815780635dceba6c146101aa57610114565b3661011457005b600080fd5b34801561012557600080fd5b5061012e6103c7565b60405161013b9190612787565b60405180910390f35b34801561015057600080fd5b5061016b6004803603810190610166919061284f565b6103ed565b60405161017891906128ca565b60405180910390f35b34801561018d57600080fd5b506101a860048036038101906101a391906129c0565b610497565b005b3480156101b657600080fd5b506101bf610621565b6040516101cf9493929190612a54565b60405180910390f35b3480156101e457600080fd5b506101ed61066d565b6040516102039a99989796959493929190612aa8565b60405180910390f35b34801561021857600080fd5b50610233600480360381019061022e9190612b44565b610704565b005b34801561024157600080fd5b5061025c60048036038101906102579190612b71565b6107f1565b60405161026991906128ca565b60405180910390f35b34801561027e57600080fd5b50610287610ad2565b005b6102a3600480360381019061029e9190612c65565b610ead565b005b3480156102b157600080fd5b506102ba6114a8565b6040516102c79190612cd3565b60405180910390f35b3480156102dc57600080fd5b506102e56114ce565b005b3480156102f357600080fd5b506102fc61181b565b6040516103099190612cee565b60405180910390f35b34801561031e57600080fd5b5061032761183f565b005b610331611c3e565b005b34801561033f57600080fd5b506103486122cf565b005b34801561035657600080fd5b50610371600480360381019061036c9190612d3f565b6124e4565b005b34801561037f57600080fd5b5061039a60048036038101906103959190612d6c565b612581565b005b3480156103a857600080fd5b506103b1612633565b6040516103be9190612cee565b60405180910390f35b600f60009054906101000a900473ffffffffffffffffffffffffffffffffffffffff1681565b600080826040516020016104019190612cee565b604051602081830303815290604052805190602001206040516020016104279190612dba565b60405160208183030381529060405280519060200120905061048d858580806020026020016040519081016040528093929190818152602001838360200280828437600081840152601f19601f82011690508083019250505050505050600d5483612659565b9150509392505050565b7f000000000000000000000000000000000000000000000000000000000000000073ffffffffffffffffffffffffffffffffffffffff163373ffffffffffffffffffffffffffffffffffffffff1614610525576040517f08c379a000000000000000000000000000000000000000000000000000000000815260040161051c90612e32565b60405180910390fd5b600115158415151461056c576040517f08c379a000000000000000000000000000000000000000000000000000000000815260040161056390612e9e565b60405180910390fd5b604051806080016040528085151581526020018481526020018360ff1681526020018267ffffffffffffffff16815250600960008201518160000160006101000a81548160ff0219169083151502179055506020820151816001015560408201518160020160006101000a81548160ff021916908360ff16021790555060608201518160020160016101000a81548167ffffffffffffffff021916908367ffffffffffffffff16021790555090505050505050565b60098060000160009054906101000a900460ff16908060010154908060020160009054906101000a900460ff16908060020160019054906101000a900467ffffffffffffffff16905084565b60008060000160009054906101000a900460ff16908060010154908060020154908060030160009054906101000a900467ffffffffffffffff16908060030160089054906101000a900467ffffffffffffffff16908060040160009054906101000a900473ffffffffffffffffffffffffffffffffffffffff1690806005015490806006015490806007015490806008015490508a565b7f000000000000000000000000000000000000000000000000000000000000000073ffffffffffffffffffffffffffffffffffffffff163373ffffffffffffffffffffffffffffffffffffffff1614610792576040517f08c379a000000000000000000000000000000000000000000000000000000000815260040161078990612e32565b60405180910390fd5b6001600e60166101000a81548160ff02191690831515021790555080600e60006101000a81548173ffffffffffffffffffffffffffffffffffffffff021916908373ffffffffffffffffffffffffffffffffffffffff16021790555050565b60007f000000000000000000000000000000000000000000000000000000000000000073ffffffffffffffffffffffffffffffffffffffff163373ffffffffffffffffffffffffffffffffffffffff161461084b57600080fd5b600073ffffffffffffffffffffffffffffffffffffffff168b73ffffffffffffffffffffffffffffffffffffffff160361088457600080fd5b60008a1161089157600080fd5b6000891161089e57600080fd5b8267ffffffffffffffff168467ffffffffffffffff161080156108ca5750428367ffffffffffffffff16115b610909576040517f08c379a000000000000000000000000000000000000000000000000000000000815260040161090090612f0a565b60405180910390fd5b6040518061014001604052808d151581526020018b81526020018a81526020018567ffffffffffffffff1681526020018467ffffffffffffffff1681526020018373ffffffffffffffffffffffffffffffffffffffff168152602001878152602001868152602001898152602001888152506000808201518160000160006101000a81548160ff021916908315150217905550602082015181600101556040820151816002015560608201518160030160006101000a81548167ffffffffffffffff021916908367ffffffffffffffff16021790555060808201518160030160086101000a81548167ffffffffffffffff021916908367ffffffffffffffff16021790555060a08201518160040160006101000a81548173ffffffffffffffffffffffffffffffffffffffff021916908373ffffffffffffffffffffffffffffffffffffffff16021790555060c0820151816005015560e08201518160060155610100820151816007015561012082015181600801559050507f1f72a91d509e6a0c5effd143cf660d1df82dabdb2c0da190480afd8f57ca35f084848c8c604051610ab79493929190612f5b565b60405180910390a1600190509b9a5050505050505050505050565b600060040160009054906101000a900473ffffffffffffffffffffffffffffffffffffffff1673ffffffffffffffffffffffffffffffffffffffff163373ffffffffffffffffffffffffffffffffffffffff1614610b65576040517f08c379a0000000000000000000000000000000000000000000000000000000008152600401610b5c90612fec565b60405180910390fd5b42600960020160019054906101000a900467ffffffffffffffff1667ffffffffffffffff1610610bca576040517f08c379a0000000000000000000000000000000000000000000000000000000008152600401610bc190613058565b60405180910390fd5b6000601060009054906101000a900473ffffffffffffffffffffffffffffffffffffffff1673ffffffffffffffffffffffffffffffffffffffff1663e6a43905600c60009054906101000a900473ffffffffffffffffffffffffffffffffffffffff16600f60009054906101000a900473ffffffffffffffffffffffffffffffffffffffff1673ffffffffffffffffffffffffffffffffffffffff1663ad5c46486040518163ffffffff1660e01b8152600401602060405180830381865afa158015610c9a573d6000803e3d6000fd5b505050506040513d601f19601f82011682018060405250810190610cbe919061308d565b6040518363ffffffff1660e01b8152600401610cdb9291906130ba565b602060405180830381865afa158015610cf8573d6000803e3d6000fd5b505050506040513d601f19601f82011682018060405250810190610d1c919061308d565b9050600073ffffffffffffffffffffffffffffffffffffffff168173ffffffffffffffffffffffffffffffffffffffff1603610d8d576040517f08c379a0000000000000000000000000000000000000000000000000000000008152600401610d849061312f565b60405180910390fd5b8073ffffffffffffffffffffffffffffffffffffffff1663a9059cbb600060040160009054906101000a900473ffffffffffffffffffffffffffffffffffffffff168373ffffffffffffffffffffffffffffffffffffffff166370a08231306040518263ffffffff1660e01b8152600401610e089190612cee565b602060405180830381865afa158015610e25573d6000803e3d6000fd5b505050506040513d601f19601f82011682018060405250810190610e499190613164565b6040518363ffffffff1660e01b8152600401610e66929190613191565b6020604051808303816000875af1158015610e85573d6000803e3d6000fd5b505050506040513d601f19601f82011682018060405250810190610ea991906131cf565b5050565b600060030160009054906101000a900467ffffffffffffffff1667ffffffffffffffff164210158015610f035750600060030160089054906101000a900467ffffffffffffffff1667ffffffffffffffff164211155b610f42576040517f08c379a0000000000000000000000000000000000000000000000000000000008152600401610f3990613248565b60405180910390fd5b6000600601543411158015610f5c57506000600501543410155b610f9b576040517f08c379a0000000000000000000000000000000000000000000000000000000008152600401610f92906132b4565b60405180910390fd5b60007f00000000000000000000000000000000000000000000000000000000000000006012610fca9190613303565b600a610fd6919061346b565b60006001015434610fe791906134b6565b610ff19190613527565b90506000800160009054906101000a900460ff1615611055576110158383336103ed565b611054576040517f08c379a000000000000000000000000000000000000000000000000000000000815260040161104b906135a4565b60405180910390fd5b5b600060080154473461106791906135c4565b11156110a8576040517f08c379a000000000000000000000000000000000000000000000000000000000815260040161109f90613644565b60405180910390fd5b60006007015447106110d0576001600e60146101000a81548160ff0219169083151502179055505b600e60169054906101000a900460ff161561138b5780600c60009054906101000a900473ffffffffffffffffffffffffffffffffffffffff1673ffffffffffffffffffffffffffffffffffffffff166370a08231306040518263ffffffff1660e01b81526004016111419190612cee565b602060405180830381865afa15801561115e573d6000803e3d6000fd5b505050506040513d601f19601f820116820180604052508101906111829190613164565b101561138a576000600e60009054906101000a900473ffffffffffffffffffffffffffffffffffffffff1673ffffffffffffffffffffffffffffffffffffffff1663fbccedae6040518163ffffffff1660e01b8152600401602060405180830381865afa1580156111f7573d6000803e3d6000fd5b505050506040513d601f19601f8201168201806040525081019061121b9190613164565b90508181600c60009054906101000a900473ffffffffffffffffffffffffffffffffffffffff1673ffffffffffffffffffffffffffffffffffffffff166370a08231306040518263ffffffff1660e01b815260040161127a9190612cee565b602060405180830381865afa158015611297573d6000803e3d6000fd5b505050506040513d601f19601f820116820180604052508101906112bb9190613164565b6112c591906135c4565b1015611306576040517f08c379a00000000000000000000000000000000000000000000000000000000081526004016112fd906136b0565b60405180910390fd5b600e60009054906101000a900473ffffffffffffffffffffffffffffffffffffffff1673ffffffffffffffffffffffffffffffffffffffff166386d1a69f6040518163ffffffff1660e01b8152600401600060405180830381600087803b15801561137057600080fd5b505af1158015611384573d6000803e3d6000fd5b50505050505b5b600c60009054906101000a900473ffffffffffffffffffffffffffffffffffffffff1673ffffffffffffffffffffffffffffffffffffffff1663a9059cbb33836040518363ffffffff1660e01b81526004016113e8929190613191565b6020604051808303816000875af1158015611407573d6000803e3d6000fd5b505050506040513d601f19601f8201168201806040525081019061142b91906131cf565b61146a576040517f08c379a00000000000000000000000000000000000000000000000000000000081526004016114619061371c565b60405180910390fd5b7f4da47ba0d1e881f0ec30f86a50eafb90abb9641d4757b8968faa3a35701dab75338260405161149b929190613191565b60405180910390a1505050565b601060009054906101000a900473ffffffffffffffffffffffffffffffffffffffff1681565b600060040160009054906101000a900473ffffffffffffffffffffffffffffffffffffffff1673ffffffffffffffffffffffffffffffffffffffff163373ffffffffffffffffffffffffffffffffffffffff1614611561576040517f08c379a000000000000000000000000000000000000000000000000000000000815260040161155890612fec565b60405180910390fd5b42600060030160089054906101000a900467ffffffffffffffff1667ffffffffffffffff16106115c6576040517f08c379a00000000000000000000000000000000000000000000000000000000081526004016115bd90613788565b60405180910390fd5b60001515600960000160009054906101000a900460ff16151514806115fe575060011515600e60159054906101000a900460ff161515145b61160757600080fd5b600e60169054906101000a900460ff161561169f57600e60009054906101000a900473ffffffffffffffffffffffffffffffffffffffff1673ffffffffffffffffffffffffffffffffffffffff166386d1a69f6040518163ffffffff1660e01b8152600401600060405180830381600087803b15801561168657600080fd5b505af115801561169a573d6000803e3d6000fd5b505050505b600c60009054906101000a900473ffffffffffffffffffffffffffffffffffffffff1673ffffffffffffffffffffffffffffffffffffffff1663a9059cbb33600c60009054906101000a900473ffffffffffffffffffffffffffffffffffffffff1673ffffffffffffffffffffffffffffffffffffffff166370a08231306040518263ffffffff1660e01b81526004016117399190612cee565b602060405180830381865afa158015611756573d6000803e3d6000fd5b505050506040513d601f19601f8201168201806040525081019061177a9190613164565b6040518363ffffffff1660e01b8152600401611797929190613191565b6020604051808303816000875af11580156117b6573d6000803e3d6000fd5b505050506040513d601f19601f820116820180604052508101906117da91906131cf565b611819576040517f08c379a00000000000000000000000000000000000000000000000000000000081526004016118109061371c565b60405180910390fd5b565b7f000000000000000000000000000000000000000000000000000000000000000081565b42600060030160089054906101000a900467ffffffffffffffff1667ffffffffffffffff16106118a4576040517f08c379a000000000000000000000000000000000000000000000000000000000815260040161189b90613788565b60405180910390fd5b60001515600e60149054906101000a900460ff161515146118fa576040517f08c379a00000000000000000000000000000000000000000000000000000000081526004016118f1906137f4565b60405180910390fd5b6000600c60009054906101000a900473ffffffffffffffffffffffffffffffffffffffff1673ffffffffffffffffffffffffffffffffffffffff166370a08231336040518263ffffffff1660e01b81526004016119579190612cee565b602060405180830381865afa158015611974573d6000803e3d6000fd5b505050506040513d601f19601f820116820180604052508101906119989190613164565b9050600c60009054906101000a900473ffffffffffffffffffffffffffffffffffffffff1673ffffffffffffffffffffffffffffffffffffffff166323b872dd33600060040160009054906101000a900473ffffffffffffffffffffffffffffffffffffffff16600c60009054906101000a900473ffffffffffffffffffffffffffffffffffffffff1673ffffffffffffffffffffffffffffffffffffffff166370a08231336040518263ffffffff1660e01b8152600401611a5a9190612cee565b602060405180830381865afa158015611a77573d6000803e3d6000fd5b505050506040513d601f19601f82011682018060405250810190611a9b9190613164565b6040518463ffffffff1660e01b8152600401611ab993929190613814565b6020604051808303816000875af1158015611ad8573d6000803e3d6000fd5b505050506040513d601f19601f82011682018060405250810190611afc91906131cf565b611b3b576040517f08c379a0000000000000000000000000000000000000000000000000000000008152600401611b329061371c565b60405180910390fd5b60003373ffffffffffffffffffffffffffffffffffffffff166000600101547f00000000000000000000000000000000000000000000000000000000000000006012611b879190613303565b600a611b93919061346b565b84611b9e91906134b6565b611ba89190613527565b604051611bb49061387c565b60006040518083038185875af1925050503d8060008114611bf1576040519150601f19603f3d011682016040523d82523d6000602084013e611bf6565b606091505b5050905080611c3a576040517f08c379a0000000000000000000000000000000000000000000000000000000008152600401611c31906138dd565b60405180910390fd5b5050565b600060040160009054906101000a900473ffffffffffffffffffffffffffffffffffffffff1673ffffffffffffffffffffffffffffffffffffffff163373ffffffffffffffffffffffffffffffffffffffff1614611cd1576040517f08c379a0000000000000000000000000000000000000000000000000000000008152600401611cc890612fec565b60405180910390fd5b42600060030160089054906101000a900467ffffffffffffffff1667ffffffffffffffff1610611d36576040517f08c379a0000000000000000000000000000000000000000000000000000000008152600401611d2d90613788565b60405180910390fd5b60011515600e60149054906101000a900460ff16151514611d8c576040517f08c379a0000000000000000000000000000000000000000000000000000000008152600401611d8390613949565b60405180910390fd5b60011515600960000160009054906101000a900460ff16151514611de5576040517f08c379a0000000000000000000000000000000000000000000000000000000008152600401611ddc906139b5565b60405180910390fd5b60007f00000000000000000000000000000000000000000000000000000000000000006012611e149190613303565b600a611e20919061346b565b606447600960020160009054906101000a900460ff1660ff16611e4391906134b6565b611e4d9190613527565b600960010154611e5d91906134b6565b611e679190613527565b905080600c60009054906101000a900473ffffffffffffffffffffffffffffffffffffffff1673ffffffffffffffffffffffffffffffffffffffff166370a08231306040518263ffffffff1660e01b8152600401611ec59190612cee565b602060405180830381865afa158015611ee2573d6000803e3d6000fd5b505050506040513d601f19601f82011682018060405250810190611f069190613164565b1015611f47576040517f08c379a0000000000000000000000000000000000000000000000000000000008152600401611f3e90613a21565b60405180910390fd5b600c60009054906101000a900473ffffffffffffffffffffffffffffffffffffffff1673ffffffffffffffffffffffffffffffffffffffff1663095ea7b3600f60009054906101000a900473ffffffffffffffffffffffffffffffffffffffff16600c60009054906101000a900473ffffffffffffffffffffffffffffffffffffffff1673ffffffffffffffffffffffffffffffffffffffff166370a08231306040518263ffffffff1660e01b81526004016120039190612cee565b602060405180830381865afa158015612020573d6000803e3d6000fd5b505050506040513d601f19601f820116820180604052508101906120449190613164565b6040518363ffffffff1660e01b8152600401612061929190613191565b6020604051808303816000875af1158015612080573d6000803e3d6000fd5b505050506040513d601f19601f820116820180604052508101906120a491906131cf565b6120e3576040517f08c379a00000000000000000000000000000000000000000000000000000000081526004016120da90613a8d565b60405180910390fd5b600f60009054906101000a900473ffffffffffffffffffffffffffffffffffffffff1673ffffffffffffffffffffffffffffffffffffffff1663f305d719606447600960020160009054906101000a900460ff1660ff1661214491906134b6565b61214e9190613527565b600c60009054906101000a900473ffffffffffffffffffffffffffffffffffffffff1684600080306103e84261218491906135c4565b6040518863ffffffff1660e01b81526004016121a596959493929190613ae8565b60606040518083038185885af11580156121c3573d6000803e3d6000fd5b50505050506040513d601f19601f820116820180604052508101906121e89190613b49565b505050600960020160019054906101000a900467ffffffffffffffff1667ffffffffffffffff164261221a91906135c4565b600960020160016101000a81548167ffffffffffffffff021916908367ffffffffffffffff160217905550600060040160009054906101000a900473ffffffffffffffffffffffffffffffffffffffff1673ffffffffffffffffffffffffffffffffffffffff166108fc479081150290604051600060405180830381858888f193505050501580156122b0573d6000803e3d6000fd5b506001600e60156101000a81548160ff02191690831515021790555050565b600060040160009054906101000a900473ffffffffffffffffffffffffffffffffffffffff1673ffffffffffffffffffffffffffffffffffffffff163373ffffffffffffffffffffffffffffffffffffffff1614612362576040517f08c379a000000000000000000000000000000000000000000000000000000000815260040161235990612fec565b60405180910390fd5b42600060030160089054906101000a900467ffffffffffffffff1667ffffffffffffffff16106123c7576040517f08c379a00000000000000000000000000000000000000000000000000000000081526004016123be90613788565b60405180910390fd5b60001515600960000160009054906101000a900460ff16151514612420576040517f08c379a000000000000000000000000000000000000000000000000000000000815260040161241790613be8565b60405180910390fd5b60011515600e60149054906101000a900460ff16151514612476576040517f08c379a000000000000000000000000000000000000000000000000000000000815260040161246d906137f4565b60405180910390fd5b600060040160009054906101000a900473ffffffffffffffffffffffffffffffffffffffff1673ffffffffffffffffffffffffffffffffffffffff166108fc479081150290604051600060405180830381858888f193505050501580156124e1573d6000803e3d6000fd5b50565b600060040160009054906101000a900473ffffffffffffffffffffffffffffffffffffffff1673ffffffffffffffffffffffffffffffffffffffff163373ffffffffffffffffffffffffffffffffffffffff1614612577576040517f08c379a000000000000000000000000000000000000000000000000000000000815260040161256e90612fec565b60405180910390fd5b80600d8190555050565b600060040160009054906101000a900473ffffffffffffffffffffffffffffffffffffffff1673ffffffffffffffffffffffffffffffffffffffff163373ffffffffffffffffffffffffffffffffffffffff1614612614576040517f08c379a000000000000000000000000000000000000000000000000000000000815260040161260b90612fec565b60405180910390fd5b806000800160006101000a81548160ff02191690831515021790555050565b600c60009054906101000a900473ffffffffffffffffffffffffffffffffffffffff1681565b6000826126668584612670565b1490509392505050565b60008082905060005b84518110156126bb576126a68286838151811061269957612698613c08565b5b60200260200101516126c6565b915080806126b390613c37565b915050612679565b508091505092915050565b60008183106126de576126d982846126f1565b6126e9565b6126e883836126f1565b5b905092915050565b600082600052816020526040600020905092915050565b600073ffffffffffffffffffffffffffffffffffffffff82169050919050565b6000819050919050565b600061274d61274861274384612708565b612728565b612708565b9050919050565b600061275f82612732565b9050919050565b600061277182612754565b9050919050565b61278181612766565b82525050565b600060208201905061279c6000830184612778565b92915050565b600080fd5b600080fd5b600080fd5b600080fd5b600080fd5b60008083601f8401126127d1576127d06127ac565b5b8235905067ffffffffffffffff8111156127ee576127ed6127b1565b5b60208301915083602082028301111561280a576128096127b6565b5b9250929050565b600061281c82612708565b9050919050565b61282c81612811565b811461283757600080fd5b50565b60008135905061284981612823565b92915050565b600080600060408486031215612868576128676127a2565b5b600084013567ffffffffffffffff811115612886576128856127a7565b5b612892868287016127bb565b935093505060206128a58682870161283a565b9150509250925092565b60008115159050919050565b6128c4816128af565b82525050565b60006020820190506128df60008301846128bb565b92915050565b6128ee816128af565b81146128f957600080fd5b50565b60008135905061290b816128e5565b92915050565b6000819050919050565b61292481612911565b811461292f57600080fd5b50565b6000813590506129418161291b565b92915050565b600060ff82169050919050565b61295d81612947565b811461296857600080fd5b50565b60008135905061297a81612954565b92915050565b600067ffffffffffffffff82169050919050565b61299d81612980565b81146129a857600080fd5b50565b6000813590506129ba81612994565b92915050565b600080600080608085870312156129da576129d96127a2565b5b60006129e8878288016128fc565b94505060206129f987828801612932565b9350506040612a0a8782880161296b565b9250506060612a1b878288016129ab565b91505092959194509250565b612a3081612911565b82525050565b612a3f81612947565b82525050565b612a4e81612980565b82525050565b6000608082019050612a6960008301876128bb565b612a766020830186612a27565b612a836040830185612a36565b612a906060830184612a45565b95945050505050565b612aa281612811565b82525050565b600061014082019050612abe600083018d6128bb565b612acb602083018c612a27565b612ad8604083018b612a27565b612ae5606083018a612a45565b612af26080830189612a45565b612aff60a0830188612a99565b612b0c60c0830187612a27565b612b1960e0830186612a27565b612b27610100830185612a27565b612b35610120830184612a27565b9b9a5050505050505050505050565b600060208284031215612b5a57612b596127a2565b5b6000612b688482850161283a565b91505092915050565b60008060008060008060008060008060006101608c8e031215612b9757612b966127a2565b5b6000612ba58e828f016128fc565b9b50506020612bb68e828f0161283a565b9a50506040612bc78e828f01612932565b9950506060612bd88e828f01612932565b9850506080612be98e828f01612932565b97505060a0612bfa8e828f01612932565b96505060c0612c0b8e828f01612932565b95505060e0612c1c8e828f01612932565b945050610100612c2e8e828f016129ab565b935050610120612c408e828f016129ab565b925050610140612c528e828f0161283a565b9150509295989b509295989b9093969950565b60008060208385031215612c7c57612c7b6127a2565b5b600083013567ffffffffffffffff811115612c9a57612c996127a7565b5b612ca6858286016127bb565b92509250509250929050565b6000612cbd82612754565b9050919050565b612ccd81612cb2565b82525050565b6000602082019050612ce86000830184612cc4565b92915050565b6000602082019050612d036000830184612a99565b92915050565b6000819050919050565b612d1c81612d09565b8114612d2757600080fd5b50565b600081359050612d3981612d13565b92915050565b600060208284031215612d5557612d546127a2565b5b6000612d6384828501612d2a565b91505092915050565b600060208284031215612d8257612d816127a2565b5b6000612d90848285016128fc565b91505092915050565b6000819050919050565b612db4612daf82612d09565b612d99565b82525050565b6000612dc68284612da3565b60208201915081905092915050565b600082825260208201905092915050565b7f50726553616c653a206e6f7420666163746f727920636f6e7472616374000000600082015250565b6000612e1c601d83612dd5565b9150612e2782612de6565b602082019050919050565b60006020820190508181036000830152612e4b81612e0f565b9050919050565b7f63616e6e6f7420756e7365742064657800000000000000000000000000000000600082015250565b6000612e88601083612dd5565b9150612e9382612e52565b602082019050919050565b60006020820190508181036000830152612eb781612e7b565b9050919050565b7f50726553616c653a20696e76616c69642074696d650000000000000000000000600082015250565b6000612ef4601583612dd5565b9150612eff82612ebe565b602082019050919050565b60006020820190508181036000830152612f2381612ee7565b9050919050565b6000612f45612f40612f3b84612980565b612728565b612911565b9050919050565b612f5581612f2a565b82525050565b6000608082019050612f706000830187612f4c565b612f7d6020830186612f4c565b612f8a6040830185612a27565b612f976060830184612a27565b95945050505050565b7f50726553616c653a206e6f74206f776e65720000000000000000000000000000600082015250565b6000612fd6601283612dd5565b9150612fe182612fa0565b602082019050919050565b6000602082019050818103600083015261300581612fc9565b9050919050565b7f50726553616c653a206c6f636b2075702074696d650000000000000000000000600082015250565b6000613042601583612dd5565b915061304d8261300c565b602082019050919050565b6000602082019050818103600083015261307181613035565b9050919050565b60008151905061308781612823565b92915050565b6000602082840312156130a3576130a26127a2565b5b60006130b184828501613078565b91505092915050565b60006040820190506130cf6000830185612a99565b6130dc6020830184612a99565b9392505050565b7f50726553616c653a2070616972206e6f7420666f756e64000000000000000000600082015250565b6000613119601783612dd5565b9150613124826130e3565b602082019050919050565b600060208201905081810360008301526131488161310c565b9050919050565b60008151905061315e8161291b565b92915050565b60006020828403121561317a576131796127a2565b5b60006131888482850161314f565b91505092915050565b60006040820190506131a66000830185612a99565b6131b36020830184612a27565b9392505050565b6000815190506131c9816128e5565b92915050565b6000602082840312156131e5576131e46127a2565b5b60006131f3848285016131ba565b91505092915050565b7f50726553616c653a2073616c65206973206e6f74206163746976650000000000600082015250565b6000613232601b83612dd5565b915061323d826131fc565b602082019050919050565b6000602082019050818103600083015261326181613225565b9050919050565b7f50726553616c653a20616d6f756e74206973206e6f7420696e2072616e676500600082015250565b600061329e601f83612dd5565b91506132a982613268565b602082019050919050565b600060208201905081810360008301526132cd81613291565b9050919050565b7f4e487b7100000000000000000000000000000000000000000000000000000000600052601160045260246000fd5b600061330e82612947565b915061331983612947565b9250828203905060ff811115613332576133316132d4565b5b92915050565b60008160011c9050919050565b6000808291508390505b600185111561338f5780860481111561336b5761336a6132d4565b5b600185161561337a5780820291505b808102905061338885613338565b945061334f565b94509492505050565b6000826133a85760019050613464565b816133b65760009050613464565b81600181146133cc57600281146133d657613405565b6001915050613464565b60ff8411156133e8576133e76132d4565b5b8360020a9150848211156133ff576133fe6132d4565b5b50613464565b5060208310610133831016604e8410600b841016171561343a5782820a905083811115613435576134346132d4565b5b613464565b6134478484846001613345565b9250905081840481111561345e5761345d6132d4565b5b81810290505b9392505050565b600061347682612911565b915061348183612947565b92506134ae7fffffffffffffffffffffffffffffffffffffffffffffffffffffffffffffffff8484613398565b905092915050565b60006134c182612911565b91506134cc83612911565b92508282026134da81612911565b915082820484148315176134f1576134f06132d4565b5b5092915050565b7f4e487b7100000000000000000000000000000000000000000000000000000000600052601260045260246000fd5b600061353282612911565b915061353d83612911565b92508261354d5761354c6134f8565b5b828204905092915050565b7f4e6f742077686974656c69737465640000000000000000000000000000000000600082015250565b600061358e600f83612dd5565b915061359982613558565b602082019050919050565b600060208201905081810360008301526135bd81613581565b9050919050565b60006135cf82612911565b91506135da83612911565b92508282019050808211156135f2576135f16132d4565b5b92915050565b7f4861726420636170000000000000000000000000000000000000000000000000600082015250565b600061362e600883612dd5565b9150613639826135f8565b602082019050919050565b6000602082019050818103600083015261365d81613621565b9050919050565b7f4e6f7420656e6f75676820746f6b656e73000000000000000000000000000000600082015250565b600061369a601183612dd5565b91506136a582613664565b602082019050919050565b600060208201905081810360008301526136c98161368d565b9050919050565b7f50726553616c653a207472616e73666572206661696c65640000000000000000600082015250565b6000613706601883612dd5565b9150613711826136d0565b602082019050919050565b60006020820190508181036000830152613735816136f9565b9050919050565b7f50726553616c653a2073616c6520697320616374697665000000000000000000600082015250565b6000613772601783612dd5565b915061377d8261373c565b602082019050919050565b600060208201905081810360008301526137a181613765565b9050919050565b7f50726553616c653a20736f667420636170207265616368656400000000000000600082015250565b60006137de601983612dd5565b91506137e9826137a8565b602082019050919050565b6000602082019050818103600083015261380d816137d1565b9050919050565b60006060820190506138296000830186612a99565b6138366020830185612a99565b6138436040830184612a27565b949350505050565b600081905092915050565b50565b600061386660008361384b565b915061387182613856565b600082019050919050565b600061388782613859565b9150819050919050565b7f50726553616c653a207769746864726177206661696c65640000000000000000600082015250565b60006138c7601883612dd5565b91506138d282613891565b602082019050919050565b600060208201905081810360008301526138f6816138ba565b9050919050565b7f50726553616c653a20736f667420636170206e6f742072656163686564000000600082015250565b6000613933601d83612dd5565b915061393e826138fd565b602082019050919050565b6000602082019050818103600083015261396281613926565b9050919050565b7f50726553616c653a206175746f4465782069732064697361626c656400000000600082015250565b600061399f601c83612dd5565b91506139aa82613969565b602082019050919050565b600060208201905081810360008301526139ce81613992565b9050919050565b7f50726553616c653a206e6f7420656e6f75676820746f6b656e73000000000000600082015250565b6000613a0b601a83612dd5565b9150613a16826139d5565b602082019050919050565b60006020820190508181036000830152613a3a816139fe565b9050919050565b7f50726553616c653a20617070726f7665206661696c6564000000000000000000600082015250565b6000613a77601783612dd5565b9150613a8282613a41565b602082019050919050565b60006020820190508181036000830152613aa681613a6a565b9050919050565b6000819050919050565b6000613ad2613acd613ac884613aad565b612728565b612911565b9050919050565b613ae281613ab7565b82525050565b600060c082019050613afd6000830189612a99565b613b0a6020830188612a27565b613b176040830187613ad9565b613b246060830186613ad9565b613b316080830185612a99565b613b3e60a0830184612a27565b979650505050505050565b600080600060608486031215613b6257613b616127a2565b5b6000613b708682870161314f565b9350506020613b818682870161314f565b9250506040613b928682870161314f565b9150509250925092565b7f50726553616c653a206175746f44657820697320656e61626c65640000000000600082015250565b6000613bd2601b83612dd5565b9150613bdd82613b9c565b602082019050919050565b60006020820190508181036000830152613c0181613bc5565b9050919050565b7f4e487b7100000000000000000000000000000000000000000000000000000000600052603260045260246000fd5b6000613c4282612911565b91507fffffffffffffffffffffffffffffffffffffffffffffffffffffffffffffffff8203613c7457613c736132d4565b5b60018201905091905056fea2646970667358221220037261c3a9cccb5c9c6df72093ea1df0f02450b3dad2497db9b22df54e7b173264736f6c63430008110033",
  "linkReferences": {},
  "deployedLinkReferences": {}
}