{
  "_format": "hh-sol-artifact-1",
  "contractName": "PreSale",
  "sourceName": "contracts/preSale.sol",
  "abi": [
    {
      "inputs": [
        {
          "internalType": "address",
          "name": "_token",
          "type": "address"
        }
      ],
      "stateMutability": "nonpayable",
      "type": "constructor"
    },
    {
      "anonymous": false,
      "inputs": [
        {
          "indexed": false,
          "internalType": "uint256",
          "name": "startTime",
          "type": "uint256"
        },
        {
          "indexed": false,
          "internalType": "uint256",
          "name": "endTime",
          "type": "uint256"
        },
        {
          "indexed": false,
          "internalType": "uint256",
          "name": "rate",
          "type": "uint256"
        },
        {
          "indexed": false,
          "internalType": "uint256",
          "name": "amount",
          "type": "uint256"
        }
      ],
      "name": "SaleStart",
      "type": "event"
    },
    {
      "anonymous": false,
      "inputs": [
        {
          "indexed": false,
          "internalType": "address",
          "name": "buyer",
          "type": "address"
        },
        {
          "indexed": false,
          "internalType": "uint256",
          "name": "amount",
          "type": "uint256"
        }
      ],
      "name": "TokenSale",
      "type": "event"
    },
    {
      "inputs": [
        {
          "internalType": "bool",
          "name": "_enabled",
          "type": "bool"
        },
        {
          "internalType": "uint256",
          "name": "_dexRate",
          "type": "uint256"
        },
        {
          "internalType": "uint8",
          "name": "_liquidity",
          "type": "uint8"
        },
        {
          "internalType": "uint64",
          "name": "_lockUpTime",
          "type": "uint64"
        }
      ],
      "name": "Dex",
      "outputs": [],
      "stateMutability": "nonpayable",
      "type": "function"
    },
    {
      "inputs": [],
      "name": "addLiquidity",
      "outputs": [],
      "stateMutability": "payable",
      "type": "function"
    },
    {
      "inputs": [],
      "name": "autoDex",
      "outputs": [
        {
          "internalType": "bool",
          "name": "enabled",
          "type": "bool"
        },
        {
          "internalType": "uint256",
          "name": "rate",
          "type": "uint256"
        },
        {
          "internalType": "uint8",
          "name": "liquidity",
          "type": "uint8"
        },
        {
          "internalType": "uint64",
          "name": "lockUpTime",
          "type": "uint64"
        }
      ],
      "stateMutability": "view",
      "type": "function"
    },
    {
      "inputs": [
        {
          "internalType": "bytes32[]",
          "name": "_merkleProof",
          "type": "bytes32[]"
        }
      ],
      "name": "buyTokens",
      "outputs": [],
      "stateMutability": "payable",
      "type": "function"
    },
    {
      "inputs": [
        {
          "internalType": "bytes32[]",
          "name": "_merkleProof",
          "type": "bytes32[]"
        }
      ],
      "name": "checkWhitelist",
      "outputs": [
        {
          "internalType": "bool",
          "name": "",
          "type": "bool"
        }
      ],
      "stateMutability": "view",
      "type": "function"
    },
    {
      "inputs": [
        {
          "internalType": "bool",
          "name": "_whitelist",
          "type": "bool"
        },
        {
          "internalType": "address",
          "name": "_token",
          "type": "address"
        },
        {
          "internalType": "uint256",
          "name": "_rate",
          "type": "uint256"
        },
        {
          "internalType": "uint256",
          "name": "_amount",
          "type": "uint256"
        },
        {
          "internalType": "uint256",
          "name": "_softCap",
          "type": "uint256"
        },
        {
          "internalType": "uint256",
          "name": "_hardCap",
          "type": "uint256"
        },
        {
          "internalType": "uint256",
          "name": "_minVal",
          "type": "uint256"
        },
        {
          "internalType": "uint256",
          "name": "_maxVal",
          "type": "uint256"
        },
        {
          "internalType": "uint64",
          "name": "_startTime",
          "type": "uint64"
        },
        {
          "internalType": "uint64",
          "name": "_endTime",
          "type": "uint64"
        },
        {
          "internalType": "address",
          "name": "_owner",
          "type": "address"
        }
      ],
      "name": "createPreSale",
      "outputs": [
        {
          "internalType": "bool",
          "name": "",
          "type": "bool"
        }
      ],
      "stateMutability": "nonpayable",
      "type": "function"
    },
    {
      "inputs": [
        {
          "internalType": "bytes32",
          "name": "_merkleRoot",
          "type": "bytes32"
        }
      ],
      "name": "editRoot",
      "outputs": [],
      "stateMutability": "nonpayable",
      "type": "function"
    },
    {
      "inputs": [],
      "name": "factory",
      "outputs": [
        {
          "internalType": "contract Factory",
          "name": "",
          "type": "address"
        }
      ],
      "stateMutability": "view",
      "type": "function"
    },
    {
      "inputs": [],
      "name": "factoryContract",
      "outputs": [
        {
          "internalType": "address",
          "name": "",
          "type": "address"
        }
      ],
      "stateMutability": "view",
      "type": "function"
    },
    {
      "inputs": [],
      "name": "sale",
      "outputs": [
        {
          "internalType": "bool",
          "name": "whitelist",
          "type": "bool"
        },
        {
          "internalType": "uint256",
          "name": "rate",
          "type": "uint256"
        },
        {
          "internalType": "uint256",
          "name": "amount",
          "type": "uint256"
        },
        {
          "internalType": "uint64",
          "name": "startTime",
          "type": "uint64"
        },
        {
          "internalType": "uint64",
          "name": "endTime",
          "type": "uint64"
        },
        {
          "internalType": "address",
          "name": "owner",
          "type": "address"
        },
        {
          "internalType": "uint256",
          "name": "minVal",
          "type": "uint256"
        },
        {
          "internalType": "uint256",
          "name": "maxVal",
          "type": "uint256"
        },
        {
          "internalType": "uint256",
          "name": "softCap",
          "type": "uint256"
        },
        {
          "internalType": "uint256",
          "name": "hardCap",
          "type": "uint256"
        }
      ],
      "stateMutability": "view",
      "type": "function"
    },
    {
      "inputs": [
        {
          "internalType": "address",
          "name": "_vestingContract",
          "type": "address"
        }
      ],
      "name": "setVesting",
      "outputs": [],
      "stateMutability": "nonpayable",
      "type": "function"
    },
    {
      "inputs": [
        {
          "internalType": "bool",
          "name": "_whitelist",
          "type": "bool"
        }
      ],
      "name": "setWhitelist",
      "outputs": [],
      "stateMutability": "nonpayable",
      "type": "function"
    },
    {
      "inputs": [],
      "name": "token",
      "outputs": [
        {
          "internalType": "address",
          "name": "",
          "type": "address"
        }
      ],
      "stateMutability": "view",
      "type": "function"
    },
    {
      "inputs": [],
      "name": "uniswapV2Router",
      "outputs": [
        {
          "internalType": "contract IUniswapV2Router02",
          "name": "",
          "type": "address"
        }
      ],
      "stateMutability": "view",
      "type": "function"
    },
    {
      "inputs": [],
      "name": "withdrawETH",
      "outputs": [],
      "stateMutability": "nonpayable",
      "type": "function"
    },
    {
      "inputs": [],
      "name": "withdrawLiquidity",
      "outputs": [],
      "stateMutability": "nonpayable",
      "type": "function"
    },
    {
      "inputs": [],
      "name": "withdrawOwner",
      "outputs": [],
      "stateMutability": "nonpayable",
      "type": "function"
    },
    {
      "inputs": [],
      "name": "withdrawToken",
      "outputs": [],
      "stateMutability": "nonpayable",
      "type": "function"
    },
    {
      "stateMutability": "payable",
      "type": "receive"
    }
  ],
  "bytecode": "0x60c06040526000600e60146101000a81548160ff0219169083151502179055506000600e60156101000a81548160ff021916908315150217905550737a250d5630b4cf539739df2c5dacb4c659f2488d600f60006101000a81548173ffffffffffffffffffffffffffffffffffffffff021916908373ffffffffffffffffffffffffffffffffffffffff160217905550735c69bee701ef814a2b6a3edd4b1652cb9cc5aa6f601060006101000a81548173ffffffffffffffffffffffffffffffffffffffff021916908373ffffffffffffffffffffffffffffffffffffffff160217905550348015620000f157600080fd5b50604051620041fa380380620041fa83398181016040528101906200011791906200027c565b80600c60006101000a81548173ffffffffffffffffffffffffffffffffffffffff021916908373ffffffffffffffffffffffffffffffffffffffff1602179055508073ffffffffffffffffffffffffffffffffffffffff1663313ce5676040518163ffffffff1660e01b8152600401602060405180830381865afa158015620001a4573d6000803e3d6000fd5b505050506040513d601f19601f82011682018060405250810190620001ca9190620002ec565b60ff1660a08160ff16815250503373ffffffffffffffffffffffffffffffffffffffff1660808173ffffffffffffffffffffffffffffffffffffffff1681525050506200031e565b600080fd5b600073ffffffffffffffffffffffffffffffffffffffff82169050919050565b6000620002448262000217565b9050919050565b620002568162000237565b81146200026257600080fd5b50565b60008151905062000276816200024b565b92915050565b60006020828403121562000295576200029462000212565b5b6000620002a58482850162000265565b91505092915050565b600060ff82169050919050565b620002c681620002ae565b8114620002d257600080fd5b50565b600081519050620002e681620002bb565b92915050565b60006020828403121562000305576200030462000212565b5b60006200031584828501620002d5565b91505092915050565b60805160a051613e936200036760003960008181610fcd01528181611bcb0152611e450152600081816103ef0152818161065c0152818161074b015261188c0152613e936000f3fe60806040526004361061010d5760003560e01c8063c45a015511610095578063e8078d9411610064578063e8078d9414610329578063e8cc00ad14610333578063f74766491461034a578063f958a65714610373578063fc0c546a1461039c57610114565b8063c45a0155146102a5578063ca628c78146102d0578063de11c94a146102e7578063e086e5ec1461031257610114565b80636f6ff3bc116100dc5780636f6ff3bc146101cf57806371a8ad12146101f85780637ea382c114610235578063ab98089f1461024c578063b8dde1121461026857610114565b80631694505e14610119578063397d9675146101445780635dceba6c1461016d5780636ad1fe021461019b57610114565b3661011457005b600080fd5b34801561012557600080fd5b5061012e6103c7565b60405161013b91906127c8565b60405180910390f35b34801561015057600080fd5b5061016b600480360381019061016691906128d4565b6103ed565b005b34801561017957600080fd5b50610182610577565b6040516101929493929190612977565b60405180910390f35b3480156101a757600080fd5b506101b06105c3565b6040516101c69a999897969594939291906129dd565b60405180910390f35b3480156101db57600080fd5b506101f660048036038101906101f19190612aa5565b61065a565b005b34801561020457600080fd5b5061021f600480360381019061021a9190612ad2565b610747565b60405161022c9190612bc6565b60405180910390f35b34801561024157600080fd5b5061024a610b00565b005b61026660048036038101906102619190612c46565b610edb565b005b34801561027457600080fd5b5061028f600480360381019061028a9190612c46565b6114d5565b60405161029c9190612bc6565b60405180910390f35b3480156102b157600080fd5b506102ba611558565b6040516102c79190612cb4565b60405180910390f35b3480156102dc57600080fd5b506102e561157e565b005b3480156102f357600080fd5b506102fc61188a565b6040516103099190612ccf565b60405180910390f35b34801561031e57600080fd5b506103276118ae565b005b610331611c9a565b005b34801561033f57600080fd5b50610348612310565b005b34801561035657600080fd5b50610371600480360381019061036c9190612d20565b612525565b005b34801561037f57600080fd5b5061039a60048036038101906103959190612d4d565b6125c2565b005b3480156103a857600080fd5b506103b1612674565b6040516103be9190612ccf565b60405180910390f35b600f60009054906101000a900473ffffffffffffffffffffffffffffffffffffffff1681565b7f000000000000000000000000000000000000000000000000000000000000000073ffffffffffffffffffffffffffffffffffffffff163373ffffffffffffffffffffffffffffffffffffffff161461047b576040517f08c379a000000000000000000000000000000000000000000000000000000000815260040161047290612dd7565b60405180910390fd5b60011515841515146104c2576040517f08c379a00000000000000000000000000000000000000000000000000000000081526004016104b990612e43565b60405180910390fd5b604051806080016040528085151581526020018481526020018360ff1681526020018267ffffffffffffffff16815250600960008201518160000160006101000a81548160ff0219169083151502179055506020820151816001015560408201518160020160006101000a81548160ff021916908360ff16021790555060608201518160020160016101000a81548167ffffffffffffffff021916908367ffffffffffffffff16021790555090505050505050565b60098060000160009054906101000a900460ff16908060010154908060020160009054906101000a900460ff16908060020160019054906101000a900467ffffffffffffffff16905084565b60008060000160009054906101000a900460ff16908060010154908060020154908060030160009054906101000a900467ffffffffffffffff16908060030160089054906101000a900467ffffffffffffffff16908060040160009054906101000a900473ffffffffffffffffffffffffffffffffffffffff1690806005015490806006015490806007015490806008015490508a565b7f000000000000000000000000000000000000000000000000000000000000000073ffffffffffffffffffffffffffffffffffffffff163373ffffffffffffffffffffffffffffffffffffffff16146106e8576040517f08c379a00000000000000000000000000000000000000000000000000000000081526004016106df90612dd7565b60405180910390fd5b6001600e60156101000a81548160ff02191690831515021790555080600e60006101000a81548173ffffffffffffffffffffffffffffffffffffffff021916908373ffffffffffffffffffffffffffffffffffffffff16021790555050565b60007f000000000000000000000000000000000000000000000000000000000000000073ffffffffffffffffffffffffffffffffffffffff163373ffffffffffffffffffffffffffffffffffffffff16146107d7576040517f08c379a00000000000000000000000000000000000000000000000000000000081526004016107ce90612eaf565b60405180910390fd5b600073ffffffffffffffffffffffffffffffffffffffff168b73ffffffffffffffffffffffffffffffffffffffff1603610846576040517f08c379a000000000000000000000000000000000000000000000000000000000815260040161083d90612f41565b60405180910390fd5b60008a11610889576040517f08c379a000000000000000000000000000000000000000000000000000000000815260040161088090612fad565b60405180910390fd5b600089116108cc576040517f08c379a00000000000000000000000000000000000000000000000000000000081526004016108c390613019565b60405180910390fd5b8267ffffffffffffffff168467ffffffffffffffff161080156108f85750428367ffffffffffffffff16115b610937576040517f08c379a000000000000000000000000000000000000000000000000000000000815260040161092e90613085565b60405180910390fd5b6040518061014001604052808d151581526020018b81526020018a81526020018567ffffffffffffffff1681526020018467ffffffffffffffff1681526020018373ffffffffffffffffffffffffffffffffffffffff168152602001878152602001868152602001898152602001888152506000808201518160000160006101000a81548160ff021916908315150217905550602082015181600101556040820151816002015560608201518160030160006101000a81548167ffffffffffffffff021916908367ffffffffffffffff16021790555060808201518160030160086101000a81548167ffffffffffffffff021916908367ffffffffffffffff16021790555060a08201518160040160006101000a81548173ffffffffffffffffffffffffffffffffffffffff021916908373ffffffffffffffffffffffffffffffffffffffff16021790555060c0820151816005015560e08201518160060155610100820151816007015561012082015181600801559050507f1f72a91d509e6a0c5effd143cf660d1df82dabdb2c0da190480afd8f57ca35f084848c8c604051610ae594939291906130d6565b60405180910390a1600190509b9a5050505050505050505050565b600060040160009054906101000a900473ffffffffffffffffffffffffffffffffffffffff1673ffffffffffffffffffffffffffffffffffffffff163373ffffffffffffffffffffffffffffffffffffffff1614610b93576040517f08c379a0000000000000000000000000000000000000000000000000000000008152600401610b8a90613167565b60405180910390fd5b42600960020160019054906101000a900467ffffffffffffffff1667ffffffffffffffff1610610bf8576040517f08c379a0000000000000000000000000000000000000000000000000000000008152600401610bef906131d3565b60405180910390fd5b6000601060009054906101000a900473ffffffffffffffffffffffffffffffffffffffff1673ffffffffffffffffffffffffffffffffffffffff1663e6a43905600c60009054906101000a900473ffffffffffffffffffffffffffffffffffffffff16600f60009054906101000a900473ffffffffffffffffffffffffffffffffffffffff1673ffffffffffffffffffffffffffffffffffffffff1663ad5c46486040518163ffffffff1660e01b8152600401602060405180830381865afa158015610cc8573d6000803e3d6000fd5b505050506040513d601f19601f82011682018060405250810190610cec9190613208565b6040518363ffffffff1660e01b8152600401610d09929190613235565b602060405180830381865afa158015610d26573d6000803e3d6000fd5b505050506040513d601f19601f82011682018060405250810190610d4a9190613208565b9050600073ffffffffffffffffffffffffffffffffffffffff168173ffffffffffffffffffffffffffffffffffffffff1603610dbb576040517f08c379a0000000000000000000000000000000000000000000000000000000008152600401610db2906132aa565b60405180910390fd5b8073ffffffffffffffffffffffffffffffffffffffff1663a9059cbb600060040160009054906101000a900473ffffffffffffffffffffffffffffffffffffffff168373ffffffffffffffffffffffffffffffffffffffff166370a08231306040518263ffffffff1660e01b8152600401610e369190612ccf565b602060405180830381865afa158015610e53573d6000803e3d6000fd5b505050506040513d601f19601f82011682018060405250810190610e7791906132df565b6040518363ffffffff1660e01b8152600401610e9492919061330c565b6020604051808303816000875af1158015610eb3573d6000803e3d6000fd5b505050506040513d601f19601f82011682018060405250810190610ed7919061334a565b5050565b600060030160009054906101000a900467ffffffffffffffff1667ffffffffffffffff164210158015610f315750600060030160089054906101000a900467ffffffffffffffff1667ffffffffffffffff164211155b610f70576040517f08c379a0000000000000000000000000000000000000000000000000000000008152600401610f67906133c3565b60405180910390fd5b6000600601543411158015610f8a57506000600501543410155b610fc9576040517f08c379a0000000000000000000000000000000000000000000000000000000008152600401610fc09061342f565b60405180910390fd5b60007f00000000000000000000000000000000000000000000000000000000000000006012610ff8919061347e565b600a61100491906135e6565b600060010154346110159190613631565b61101f91906136a2565b90506000800160009054906101000a900460ff16156110825761104283836114d5565b611081576040517f08c379a00000000000000000000000000000000000000000000000000000000081526004016110789061371f565b60405180910390fd5b5b6000600801544734611094919061373f565b11156110d5576040517f08c379a00000000000000000000000000000000000000000000000000000000081526004016110cc906137bf565b60405180910390fd5b60006007015447106110fd576001600e60146101000a81548160ff0219169083151502179055505b600e60159054906101000a900460ff16156113b85780600c60009054906101000a900473ffffffffffffffffffffffffffffffffffffffff1673ffffffffffffffffffffffffffffffffffffffff166370a08231306040518263ffffffff1660e01b815260040161116e9190612ccf565b602060405180830381865afa15801561118b573d6000803e3d6000fd5b505050506040513d601f19601f820116820180604052508101906111af91906132df565b10156113b7576000600e60009054906101000a900473ffffffffffffffffffffffffffffffffffffffff1673ffffffffffffffffffffffffffffffffffffffff1663fbccedae6040518163ffffffff1660e01b8152600401602060405180830381865afa158015611224573d6000803e3d6000fd5b505050506040513d601f19601f8201168201806040525081019061124891906132df565b90508181600c60009054906101000a900473ffffffffffffffffffffffffffffffffffffffff1673ffffffffffffffffffffffffffffffffffffffff166370a08231306040518263ffffffff1660e01b81526004016112a79190612ccf565b602060405180830381865afa1580156112c4573d6000803e3d6000fd5b505050506040513d601f19601f820116820180604052508101906112e891906132df565b6112f2919061373f565b1015611333576040517f08c379a000000000000000000000000000000000000000000000000000000000815260040161132a9061382b565b60405180910390fd5b600e60009054906101000a900473ffffffffffffffffffffffffffffffffffffffff1673ffffffffffffffffffffffffffffffffffffffff166386d1a69f6040518163ffffffff1660e01b8152600401600060405180830381600087803b15801561139d57600080fd5b505af11580156113b1573d6000803e3d6000fd5b50505050505b5b600c60009054906101000a900473ffffffffffffffffffffffffffffffffffffffff1673ffffffffffffffffffffffffffffffffffffffff1663a9059cbb33836040518363ffffffff1660e01b815260040161141592919061330c565b6020604051808303816000875af1158015611434573d6000803e3d6000fd5b505050506040513d601f19601f82011682018060405250810190611458919061334a565b611497576040517f08c379a000000000000000000000000000000000000000000000000000000000815260040161148e90613897565b60405180910390fd5b7f4da47ba0d1e881f0ec30f86a50eafb90abb9641d4757b8968faa3a35701dab7533826040516114c892919061330c565b60405180910390a1505050565b600080336040516020016114e991906138ff565b60405160208183030381529060405280519060200120905061154f848480806020026020016040519081016040528093929190818152602001838360200280828437600081840152601f19601f82011690508083019250505050505050600d548361269a565b91505092915050565b601060009054906101000a900473ffffffffffffffffffffffffffffffffffffffff1681565b600060040160009054906101000a900473ffffffffffffffffffffffffffffffffffffffff1673ffffffffffffffffffffffffffffffffffffffff163373ffffffffffffffffffffffffffffffffffffffff1614611611576040517f08c379a000000000000000000000000000000000000000000000000000000000815260040161160890613167565b60405180910390fd5b42600060030160089054906101000a900467ffffffffffffffff1667ffffffffffffffff1610611676576040517f08c379a000000000000000000000000000000000000000000000000000000000815260040161166d90613966565b60405180910390fd5b600e60159054906101000a900460ff161561170e57600e60009054906101000a900473ffffffffffffffffffffffffffffffffffffffff1673ffffffffffffffffffffffffffffffffffffffff166386d1a69f6040518163ffffffff1660e01b8152600401600060405180830381600087803b1580156116f557600080fd5b505af1158015611709573d6000803e3d6000fd5b505050505b600c60009054906101000a900473ffffffffffffffffffffffffffffffffffffffff1673ffffffffffffffffffffffffffffffffffffffff1663a9059cbb33600c60009054906101000a900473ffffffffffffffffffffffffffffffffffffffff1673ffffffffffffffffffffffffffffffffffffffff166370a08231306040518263ffffffff1660e01b81526004016117a89190612ccf565b602060405180830381865afa1580156117c5573d6000803e3d6000fd5b505050506040513d601f19601f820116820180604052508101906117e991906132df565b6040518363ffffffff1660e01b815260040161180692919061330c565b6020604051808303816000875af1158015611825573d6000803e3d6000fd5b505050506040513d601f19601f82011682018060405250810190611849919061334a565b611888576040517f08c379a000000000000000000000000000000000000000000000000000000000815260040161187f90613897565b60405180910390fd5b565b7f000000000000000000000000000000000000000000000000000000000000000081565b42600060030160089054906101000a900467ffffffffffffffff1667ffffffffffffffff1610611913576040517f08c379a000000000000000000000000000000000000000000000000000000000815260040161190a90613966565b60405180910390fd5b60001515600e60149054906101000a900460ff16151514611969576040517f08c379a0000000000000000000000000000000000000000000000000000000008152600401611960906139d2565b60405180910390fd5b6000600c60009054906101000a900473ffffffffffffffffffffffffffffffffffffffff1673ffffffffffffffffffffffffffffffffffffffff166370a08231336040518263ffffffff1660e01b81526004016119c69190612ccf565b602060405180830381865afa1580156119e3573d6000803e3d6000fd5b505050506040513d601f19601f82011682018060405250810190611a0791906132df565b9050600c60009054906101000a900473ffffffffffffffffffffffffffffffffffffffff1673ffffffffffffffffffffffffffffffffffffffff166323b872dd33600060040160009054906101000a900473ffffffffffffffffffffffffffffffffffffffff16600c60009054906101000a900473ffffffffffffffffffffffffffffffffffffffff1673ffffffffffffffffffffffffffffffffffffffff166370a08231336040518263ffffffff1660e01b8152600401611ac99190612ccf565b602060405180830381865afa158015611ae6573d6000803e3d6000fd5b505050506040513d601f19601f82011682018060405250810190611b0a91906132df565b6040518463ffffffff1660e01b8152600401611b28939291906139f2565b6020604051808303816000875af1158015611b47573d6000803e3d6000fd5b505050506040513d601f19601f82011682018060405250810190611b6b919061334a565b611baa576040517f08c379a0000000000000000000000000000000000000000000000000000000008152600401611ba190613897565b60405180910390fd5b60003373ffffffffffffffffffffffffffffffffffffffff166000600101547f000000000000000000000000000000000000000000000000000000000000000060120360ff16600a0a840281611c0357611c02613673565b5b04604051611c1090613a5a565b60006040518083038185875af1925050503d8060008114611c4d576040519150601f19603f3d011682016040523d82523d6000602084013e611c52565b606091505b5050905080611c96576040517f08c379a0000000000000000000000000000000000000000000000000000000008152600401611c8d90613abb565b60405180910390fd5b5050565b600060040160009054906101000a900473ffffffffffffffffffffffffffffffffffffffff1673ffffffffffffffffffffffffffffffffffffffff163373ffffffffffffffffffffffffffffffffffffffff1614611d2d576040517f08c379a0000000000000000000000000000000000000000000000000000000008152600401611d2490613167565b60405180910390fd5b42600060030160089054906101000a900467ffffffffffffffff1667ffffffffffffffff1610611d92576040517f08c379a0000000000000000000000000000000000000000000000000000000008152600401611d8990613966565b60405180910390fd5b60011515600e60149054906101000a900460ff16151514611de8576040517f08c379a0000000000000000000000000000000000000000000000000000000008152600401611ddf90613b27565b60405180910390fd5b60011515600960000160009054906101000a900460ff16151514611e41576040517f08c379a0000000000000000000000000000000000000000000000000000000008152600401611e3890613b93565b60405180910390fd5b60007f00000000000000000000000000000000000000000000000000000000000000006012611e70919061347e565b600a611e7c91906135e6565b606447600960020160009054906101000a900460ff1660ff16611e9f9190613631565b611ea991906136a2565b600960010154611eb99190613631565b611ec391906136a2565b905080600c60009054906101000a900473ffffffffffffffffffffffffffffffffffffffff1673ffffffffffffffffffffffffffffffffffffffff166370a08231306040518263ffffffff1660e01b8152600401611f219190612ccf565b602060405180830381865afa158015611f3e573d6000803e3d6000fd5b505050506040513d601f19601f82011682018060405250810190611f6291906132df565b1015611fa3576040517f08c379a0000000000000000000000000000000000000000000000000000000008152600401611f9a90613bff565b60405180910390fd5b600c60009054906101000a900473ffffffffffffffffffffffffffffffffffffffff1673ffffffffffffffffffffffffffffffffffffffff1663095ea7b3600f60009054906101000a900473ffffffffffffffffffffffffffffffffffffffff16600c60009054906101000a900473ffffffffffffffffffffffffffffffffffffffff1673ffffffffffffffffffffffffffffffffffffffff166370a08231306040518263ffffffff1660e01b815260040161205f9190612ccf565b602060405180830381865afa15801561207c573d6000803e3d6000fd5b505050506040513d601f19601f820116820180604052508101906120a091906132df565b6040518363ffffffff1660e01b81526004016120bd92919061330c565b6020604051808303816000875af11580156120dc573d6000803e3d6000fd5b505050506040513d601f19601f82011682018060405250810190612100919061334a565b61213f576040517f08c379a000000000000000000000000000000000000000000000000000000000815260040161213690613c6b565b60405180910390fd5b600f60009054906101000a900473ffffffffffffffffffffffffffffffffffffffff1673ffffffffffffffffffffffffffffffffffffffff1663f305d719606447600960020160009054906101000a900460ff1660ff166121a09190613631565b6121aa91906136a2565b600c60009054906101000a900473ffffffffffffffffffffffffffffffffffffffff1684600080306103e8426121e0919061373f565b6040518863ffffffff1660e01b815260040161220196959493929190613cc6565b60606040518083038185885af115801561221f573d6000803e3d6000fd5b50505050506040513d601f19601f820116820180604052508101906122449190613d27565b505050600960020160019054906101000a900467ffffffffffffffff1667ffffffffffffffff1642612276919061373f565b600960020160016101000a81548167ffffffffffffffff021916908367ffffffffffffffff160217905550600060040160009054906101000a900473ffffffffffffffffffffffffffffffffffffffff1673ffffffffffffffffffffffffffffffffffffffff166108fc479081150290604051600060405180830381858888f1935050505015801561230c573d6000803e3d6000fd5b5050565b600060040160009054906101000a900473ffffffffffffffffffffffffffffffffffffffff1673ffffffffffffffffffffffffffffffffffffffff163373ffffffffffffffffffffffffffffffffffffffff16146123a3576040517f08c379a000000000000000000000000000000000000000000000000000000000815260040161239a90613167565b60405180910390fd5b42600060030160089054906101000a900467ffffffffffffffff1667ffffffffffffffff1610612408576040517f08c379a00000000000000000000000000000000000000000000000000000000081526004016123ff90613966565b60405180910390fd5b60001515600960000160009054906101000a900460ff16151514612461576040517f08c379a000000000000000000000000000000000000000000000000000000000815260040161245890613dc6565b60405180910390fd5b60011515600e60149054906101000a900460ff161515146124b7576040517f08c379a00000000000000000000000000000000000000000000000000000000081526004016124ae906139d2565b60405180910390fd5b600060040160009054906101000a900473ffffffffffffffffffffffffffffffffffffffff1673ffffffffffffffffffffffffffffffffffffffff166108fc479081150290604051600060405180830381858888f19350505050158015612522573d6000803e3d6000fd5b50565b600060040160009054906101000a900473ffffffffffffffffffffffffffffffffffffffff1673ffffffffffffffffffffffffffffffffffffffff163373ffffffffffffffffffffffffffffffffffffffff16146125b8576040517f08c379a00000000000000000000000000000000000000000000000000000000081526004016125af90613167565b60405180910390fd5b80600d8190555050565b600060040160009054906101000a900473ffffffffffffffffffffffffffffffffffffffff1673ffffffffffffffffffffffffffffffffffffffff163373ffffffffffffffffffffffffffffffffffffffff1614612655576040517f08c379a000000000000000000000000000000000000000000000000000000000815260040161264c90613167565b60405180910390fd5b806000800160006101000a81548160ff02191690831515021790555050565b600c60009054906101000a900473ffffffffffffffffffffffffffffffffffffffff1681565b6000826126a785846126b1565b1490509392505050565b60008082905060005b84518110156126fc576126e7828683815181106126da576126d9613de6565b5b6020026020010151612707565b915080806126f490613e15565b9150506126ba565b508091505092915050565b600081831061271f5761271a8284612732565b61272a565b6127298383612732565b5b905092915050565b600082600052816020526040600020905092915050565b600073ffffffffffffffffffffffffffffffffffffffff82169050919050565b6000819050919050565b600061278e61278961278484612749565b612769565b612749565b9050919050565b60006127a082612773565b9050919050565b60006127b282612795565b9050919050565b6127c2816127a7565b82525050565b60006020820190506127dd60008301846127b9565b92915050565b600080fd5b600080fd5b60008115159050919050565b612802816127ed565b811461280d57600080fd5b50565b60008135905061281f816127f9565b92915050565b6000819050919050565b61283881612825565b811461284357600080fd5b50565b6000813590506128558161282f565b92915050565b600060ff82169050919050565b6128718161285b565b811461287c57600080fd5b50565b60008135905061288e81612868565b92915050565b600067ffffffffffffffff82169050919050565b6128b181612894565b81146128bc57600080fd5b50565b6000813590506128ce816128a8565b92915050565b600080600080608085870312156128ee576128ed6127e3565b5b60006128fc87828801612810565b945050602061290d87828801612846565b935050604061291e8782880161287f565b925050606061292f878288016128bf565b91505092959194509250565b612944816127ed565b82525050565b61295381612825565b82525050565b6129628161285b565b82525050565b61297181612894565b82525050565b600060808201905061298c600083018761293b565b612999602083018661294a565b6129a66040830185612959565b6129b36060830184612968565b95945050505050565b60006129c782612749565b9050919050565b6129d7816129bc565b82525050565b6000610140820190506129f3600083018d61293b565b612a00602083018c61294a565b612a0d604083018b61294a565b612a1a606083018a612968565b612a276080830189612968565b612a3460a08301886129ce565b612a4160c083018761294a565b612a4e60e083018661294a565b612a5c61010083018561294a565b612a6a61012083018461294a565b9b9a5050505050505050505050565b612a82816129bc565b8114612a8d57600080fd5b50565b600081359050612a9f81612a79565b92915050565b600060208284031215612abb57612aba6127e3565b5b6000612ac984828501612a90565b91505092915050565b60008060008060008060008060008060006101608c8e031215612af857612af76127e3565b5b6000612b068e828f01612810565b9b50506020612b178e828f01612a90565b9a50506040612b288e828f01612846565b9950506060612b398e828f01612846565b9850506080612b4a8e828f01612846565b97505060a0612b5b8e828f01612846565b96505060c0612b6c8e828f01612846565b95505060e0612b7d8e828f01612846565b945050610100612b8f8e828f016128bf565b935050610120612ba18e828f016128bf565b925050610140612bb38e828f01612a90565b9150509295989b509295989b9093969950565b6000602082019050612bdb600083018461293b565b92915050565b600080fd5b600080fd5b600080fd5b60008083601f840112612c0657612c05612be1565b5b8235905067ffffffffffffffff811115612c2357612c22612be6565b5b602083019150836020820283011115612c3f57612c3e612beb565b5b9250929050565b60008060208385031215612c5d57612c5c6127e3565b5b600083013567ffffffffffffffff811115612c7b57612c7a6127e8565b5b612c8785828601612bf0565b92509250509250929050565b6000612c9e82612795565b9050919050565b612cae81612c93565b82525050565b6000602082019050612cc96000830184612ca5565b92915050565b6000602082019050612ce460008301846129ce565b92915050565b6000819050919050565b612cfd81612cea565b8114612d0857600080fd5b50565b600081359050612d1a81612cf4565b92915050565b600060208284031215612d3657612d356127e3565b5b6000612d4484828501612d0b565b91505092915050565b600060208284031215612d6357612d626127e3565b5b6000612d7184828501612810565b91505092915050565b600082825260208201905092915050565b7f50726553616c653a206e6f7420666163746f727920636f6e7472616374000000600082015250565b6000612dc1601d83612d7a565b9150612dcc82612d8b565b602082019050919050565b60006020820190508181036000830152612df081612db4565b9050919050565b7f63616e6e6f7420756e7365742064657800000000000000000000000000000000600082015250565b6000612e2d601083612d7a565b9150612e3882612df7565b602082019050919050565b60006020820190508181036000830152612e5c81612e20565b9050919050565b7f4e6f7420417574686f72697a6564000000000000000000000000000000000000600082015250565b6000612e99600e83612d7a565b9150612ea482612e63565b602082019050919050565b60006020820190508181036000830152612ec881612e8c565b9050919050565b7f50726553616c653a20746f6b656e20697320746865207a65726f20616464726560008201527f7373000000000000000000000000000000000000000000000000000000000000602082015250565b6000612f2b602283612d7a565b9150612f3682612ecf565b604082019050919050565b60006020820190508181036000830152612f5a81612f1e565b9050919050565b7f50726553616c653a207261746520697320300000000000000000000000000000600082015250565b6000612f97601283612d7a565b9150612fa282612f61565b602082019050919050565b60006020820190508181036000830152612fc681612f8a565b9050919050565b7f50726553616c653a20616d6f756e742069732030000000000000000000000000600082015250565b6000613003601483612d7a565b915061300e82612fcd565b602082019050919050565b6000602082019050818103600083015261303281612ff6565b9050919050565b7f50726553616c653a20696e76616c69642074696d650000000000000000000000600082015250565b600061306f601583612d7a565b915061307a82613039565b602082019050919050565b6000602082019050818103600083015261309e81613062565b9050919050565b60006130c06130bb6130b684612894565b612769565b612825565b9050919050565b6130d0816130a5565b82525050565b60006080820190506130eb60008301876130c7565b6130f860208301866130c7565b613105604083018561294a565b613112606083018461294a565b95945050505050565b7f50726553616c653a206e6f74206f776e65720000000000000000000000000000600082015250565b6000613151601283612d7a565b915061315c8261311b565b602082019050919050565b6000602082019050818103600083015261318081613144565b9050919050565b7f50726553616c653a206c6f636b2075702074696d650000000000000000000000600082015250565b60006131bd601583612d7a565b91506131c882613187565b602082019050919050565b600060208201905081810360008301526131ec816131b0565b9050919050565b60008151905061320281612a79565b92915050565b60006020828403121561321e5761321d6127e3565b5b600061322c848285016131f3565b91505092915050565b600060408201905061324a60008301856129ce565b61325760208301846129ce565b9392505050565b7f50726553616c653a2070616972206e6f7420666f756e64000000000000000000600082015250565b6000613294601783612d7a565b915061329f8261325e565b602082019050919050565b600060208201905081810360008301526132c381613287565b9050919050565b6000815190506132d98161282f565b92915050565b6000602082840312156132f5576132f46127e3565b5b6000613303848285016132ca565b91505092915050565b600060408201905061332160008301856129ce565b61332e602083018461294a565b9392505050565b600081519050613344816127f9565b92915050565b6000602082840312156133605761335f6127e3565b5b600061336e84828501613335565b91505092915050565b7f50726553616c653a2073616c65206973206e6f74206163746976650000000000600082015250565b60006133ad601b83612d7a565b91506133b882613377565b602082019050919050565b600060208201905081810360008301526133dc816133a0565b9050919050565b7f50726553616c653a20616d6f756e74206973206e6f7420696e2072616e676500600082015250565b6000613419601f83612d7a565b9150613424826133e3565b602082019050919050565b600060208201905081810360008301526134488161340c565b9050919050565b7f4e487b7100000000000000000000000000000000000000000000000000000000600052601160045260246000fd5b60006134898261285b565b91506134948361285b565b9250828203905060ff8111156134ad576134ac61344f565b5b92915050565b60008160011c9050919050565b6000808291508390505b600185111561350a578086048111156134e6576134e561344f565b5b60018516156134f55780820291505b8081029050613503856134b3565b94506134ca565b94509492505050565b60008261352357600190506135df565b8161353157600090506135df565b8160018114613547576002811461355157613580565b60019150506135df565b60ff8411156135635761356261344f565b5b8360020a91508482111561357a5761357961344f565b5b506135df565b5060208310610133831016604e8410600b84101617156135b55782820a9050838111156135b0576135af61344f565b5b6135df565b6135c284848460016134c0565b925090508184048111156135d9576135d861344f565b5b81810290505b9392505050565b60006135f182612825565b91506135fc8361285b565b92506136297fffffffffffffffffffffffffffffffffffffffffffffffffffffffffffffffff8484613513565b905092915050565b600061363c82612825565b915061364783612825565b925082820261365581612825565b9150828204841483151761366c5761366b61344f565b5b5092915050565b7f4e487b7100000000000000000000000000000000000000000000000000000000600052601260045260246000fd5b60006136ad82612825565b91506136b883612825565b9250826136c8576136c7613673565b5b828204905092915050565b7f4e6f742077686974656c69737465640000000000000000000000000000000000600082015250565b6000613709600f83612d7a565b9150613714826136d3565b602082019050919050565b60006020820190508181036000830152613738816136fc565b9050919050565b600061374a82612825565b915061375583612825565b925082820190508082111561376d5761376c61344f565b5b92915050565b7f4861726420636170000000000000000000000000000000000000000000000000600082015250565b60006137a9600883612d7a565b91506137b482613773565b602082019050919050565b600060208201905081810360008301526137d88161379c565b9050919050565b7f4e6f7420656e6f75676820746f6b656e73000000000000000000000000000000600082015250565b6000613815601183612d7a565b9150613820826137df565b602082019050919050565b6000602082019050818103600083015261384481613808565b9050919050565b7f50726553616c653a207472616e73666572206661696c65640000000000000000600082015250565b6000613881601883612d7a565b915061388c8261384b565b602082019050919050565b600060208201905081810360008301526138b081613874565b9050919050565b60008160601b9050919050565b60006138cf826138b7565b9050919050565b60006138e1826138c4565b9050919050565b6138f96138f4826129bc565b6138d6565b82525050565b600061390b82846138e8565b60148201915081905092915050565b7f50726553616c653a2073616c6520697320616374697665000000000000000000600082015250565b6000613950601783612d7a565b915061395b8261391a565b602082019050919050565b6000602082019050818103600083015261397f81613943565b9050919050565b7f50726553616c653a20736f667420636170207265616368656400000000000000600082015250565b60006139bc601983612d7a565b91506139c782613986565b602082019050919050565b600060208201905081810360008301526139eb816139af565b9050919050565b6000606082019050613a0760008301866129ce565b613a1460208301856129ce565b613a21604083018461294a565b949350505050565b600081905092915050565b50565b6000613a44600083613a29565b9150613a4f82613a34565b600082019050919050565b6000613a6582613a37565b9150819050919050565b7f50726553616c653a207769746864726177206661696c65640000000000000000600082015250565b6000613aa5601883612d7a565b9150613ab082613a6f565b602082019050919050565b60006020820190508181036000830152613ad481613a98565b9050919050565b7f50726553616c653a20736f667420636170206e6f742072656163686564000000600082015250565b6000613b11601d83612d7a565b9150613b1c82613adb565b602082019050919050565b60006020820190508181036000830152613b4081613b04565b9050919050565b7f50726553616c653a206175746f4465782069732064697361626c656400000000600082015250565b6000613b7d601c83612d7a565b9150613b8882613b47565b602082019050919050565b60006020820190508181036000830152613bac81613b70565b9050919050565b7f50726553616c653a206e6f7420656e6f75676820746f6b656e73000000000000600082015250565b6000613be9601a83612d7a565b9150613bf482613bb3565b602082019050919050565b60006020820190508181036000830152613c1881613bdc565b9050919050565b7f50726553616c653a20617070726f7665206661696c6564000000000000000000600082015250565b6000613c55601783612d7a565b9150613c6082613c1f565b602082019050919050565b60006020820190508181036000830152613c8481613c48565b9050919050565b6000819050919050565b6000613cb0613cab613ca684613c8b565b612769565b612825565b9050919050565b613cc081613c95565b82525050565b600060c082019050613cdb60008301896129ce565b613ce8602083018861294a565b613cf56040830187613cb7565b613d026060830186613cb7565b613d0f60808301856129ce565b613d1c60a083018461294a565b979650505050505050565b600080600060608486031215613d4057613d3f6127e3565b5b6000613d4e868287016132ca565b9350506020613d5f868287016132ca565b9250506040613d70868287016132ca565b9150509250925092565b7f50726553616c653a206175746f44657820697320656e61626c65640000000000600082015250565b6000613db0601b83612d7a565b9150613dbb82613d7a565b602082019050919050565b60006020820190508181036000830152613ddf81613da3565b9050919050565b7f4e487b7100000000000000000000000000000000000000000000000000000000600052603260045260246000fd5b6000613e2082612825565b91507fffffffffffffffffffffffffffffffffffffffffffffffffffffffffffffffff8203613e5257613e5161344f565b5b60018201905091905056fea26469706673582212207ce4c097c99473c48ce6ef1db062115c5678c654d5fa2a4f6c7705423c80fd1664736f6c63430008110033",
  "linkReferences": {},
  "deployedLinkReferences": {}
}